:020000040800F2
:100000002004002045010008A9060008B1040008EA
:10001000D10500082D040008290A0008000000008E
:100020000000000000000000000000005907000868
:100030003104000800000000AB06000815090008A4
:100040005F0100085F0100085F0100085F01000810
:100050005F0100085F0100085F0100085F01000800
:100060005F0100085F0100085F0100085F010008F0
:100070005F0100085F0100085F0100085F010008E0
:100080005F0100085F0100085F0100085F010008D0
:100090005F0100085F0100085F0100085F010008C0
:1000A0005F010008790900085F0100085F0100088E
:1000B0005F0100085F0100085F0100085F010008A0
:1000C0005F0100085F0100085F0100085F01000890
:1000D0005F0100085F0100085F0100085F01000880
:1000E0005F0100085F0100085F0100085F01000870
:1000F0005F0100085F0100085F0100085F01000860
:100100005F0100085F0100085F0100085F0100084F
:100110005F0100085F0100085F0100085F0100083F
:100120005F0100085F0100085F0100085F0100082F
:10013000DFF80CD000F068F900480047050C000813
:10014000200400200648804706480047FEE7FEE7F7
:10015000FEE7FEE7FEE7FEE7FEE7FEE7FEE7FEE777
:100160001909000831010008F0B480EA0102D40F37
:100170004200B2EB410F02D20246084611464A0045
:1001800042D0C30DDDB2C1F3C752AD1A202D35DA0E
:10019000C1F3160141F4000204B15242C5F1200638
:1001A00002FA06F12A411044B3EBD05F23D0C4B168
:1001B000012DA0EBC35009DCF0BC4FF0004202EA75
:1001C000C352DBB200F5000000F0F0B8400000F1CF
:1001D000807000EBC350A0F1807040EAD1704900FC
:1001E00009E0490841EAC071A0EBC35000F50000E6
:1001F000400800EBC350F0BC00F0CFB861420122D0
:1002000002EB4101001BF6E7F0BC704781F00041B2
:10021000AAE780F00040A7E780EA010210B502F0EB
:100220000043400022D04A001FD0010E01EB1261B2
:10023000C0F35600C2F3560240F4000042F400023C
:10024000A0FB022000047F39140400D0401C50EAB7
:10025000124001D44000491EC2B20C0604EBD0107B
:10026000401C4008802A02D003E0002010BD20F08E
:100270000100002900DA0020184310BD30B480EAE4
:10028000010202F0004530F0004221F0004013D09E
:1002900090B1C30DD40DC2F31601C0F31600E41AD9
:1002A00041F4000140F400027D34914201D3641C0A
:1002B00000E04900002C02DA30BC002070474FF407
:1002C00000000023914201D3891A034340084FEAFA
:1002D0004101F7D151B1914202D14FF0004105E007
:1002E00002D24FF0010101E06FF0010103EBC450B5
:1002F000284430BC00F051B8C10F80EAE0700844D7
:10030000CA079623002100F051B896230022114617
:1003100000F04CB800F0004220F00040C10DC0F3E6
:10032000160040F400007F2901DA0020704796296A
:1003300003DCC1F19601C84001E096398840002AEB
:10034000F4D04042704720F00040C10DC0F31600C9
:1003500040F400007F2901DA00207047962903DC71
:10036000C1F19601C840704796398840704730B552
:100370000B46014600202022012409E021FA02F563
:100380009D4205D303FA02F5491B04FA02F52844FD
:10039000151EA2F10102F1DC30BD0029A8BF704793
:1003A000401C490008BF20F00100704710B4B0FAAB
:1003B00080FC00FA0CF050EA010404BF10BC704746
:1003C00049B1CCF1200421FA04F411FA0CF118BF60
:1003D000012121430843A3EB0C01CB1D4FEA00612F
:1003E0004FEA102042BF002010BC704700EBC35002
:1003F00010440029A4BF10BC7047401C490008BF2E
:1004000020F0010010BC7047064C074D06E0E06884
:1004100040F0010394E8070098471034AC42F6D34B
:10042000FFF78AFE1C0D00083C0D000800BFFEE728
:10043000704700001C48C06940F001001A49C861BB
:100440000846806940F0040088611848006820F080
:10045000FF00164908600846006840F04400086044
:100460000020C90408854FF6FE7088850846008B79
:1004700040F0010008830846008B40F48070088338
:100480000846008C08840846008C088408460089C9
:1004900040F00300088142F21070888480060088D2
:1004A00040F0010008807047001002400008014041
:1004B00000BFFEE700B5002015490861C8601420A0
:1004C000486100208861C8610846006840F001006A
:1004D0000860084640680F4908400D4948600846D2
:1004E00000680D4908400A4908600846006820F481
:1004F000802008600846406820F4FE004860002024
:10050000886000214FF0006000F058F800BD000046
:10051000001002400000FFF8FFFFF6FE2DE9F04159
:100520000746884614461D46284600F033F8C5F1B4
:10053000040007FA00F60F20284100EA08000643ED
:1005400006F00F06E21704EBD2625211920002F19C
:10055000E022D2F800212146E31704EBD3635B11BC
:10056000A4EB431C012303FA0CF31A432046E317C0
:1005700004EBD3635B119B0003F1E023C3F800217C
:100580000348005D40EA061001490855BDE8F081C6
:1005900000E400E00146072323EA01021202054BB2
:1005A00018684FF6FF031840034B18431043014BE4
:1005B000186070470CED00E00000FA05024A0A409E
:1005C0000243024B1A60704780FFFF1F08ED00E0F6
:1005D00000BFFEE70848806940F0080006498861CE
:1005E0000648006880B2054908600846006804496A
:1005F000084302490860704700100240040C0140A3
:100600000000222200B503460A46FFF7E3FF234815
:10061000C06940F002002149C8610846806940F085
:10062000080088611E48006820F0FF001C4908602F
:100630000846006840F0BB0008601A480380001FAD
:10064000028018481038008840F4C040154910391D
:1006500008800846008840F060000880084600884E
:1006600040F4006008800846008840F008000880D8
:10067000081D008840F48050091D08800846008845
:1006800040F480700880C81306492C390880084659
:10069000008840F00100088000BD0000001002400A
:1006A000000C01402C040040704770472DE9F05FBA
:1006B00004460D46144E154F601B15490860154839
:1006C0000068096808441349086008460068FFF795
:1006D00013FE83463946FFF79FFD81460C480068AC
:1006E000FFF70AFE83463146FFF796FD82464946EC
:1006F000FFF73AFD8046FFF70DFE07490860084600
:100700000068BDE8F09F0000000070410AD7233C5C
:1007100010000020180000201400002001460229CB
:1007200004D0032907D004290DD108E04FF08042FE
:10073000928C10B209E0064A128810B205E0054A10
:10074000128810B201E0002000BF00BF7047000017
:100750002404004024080040704710B500F002F85F
:1007600010BD00000CB500200190009033480068D7
:1007700040F480303149086000BF3048006800F420
:10078000003000900198401C0190009818B9019821
:10079000B0F5A06FF1D12948006800F4003010B125
:1007A0000120009001E0002000900098012843D132
:1007B0002348006840F0100021490860084600689E
:1007C00020F0030008600846006840F0020008605E
:1007D0001A48406819494860084640684860084619
:1007E000406840F4806048600846406820F47C100F
:1007F00048600846406840F4E810486008460068D1
:1008000040F08070086000BF0C48006800F0007085
:100810000028F9D00948406820F0030007494860E3
:100820000846406840F00200486000BF0348406846
:1008300000F00C000828F9D10CBD000000100240A7
:100840000020024000B50246002A07DA01200A49CA
:10085000086000200949C1F8B80106E000200649F7
:10086000086001200549C1F8B801104600F0ECF914
:100870000349088000BD0000BC8121420080214264
:100880004004004030B504460025FFF713FE1F4822
:10089000006840F480301D49086000BF1B480068B4
:1008A000400C0028FAD04FF4806018494860A01E20
:1008B000C4B20846406840EA844048600846406840
:1008C00040F4803048601248006840F0320010491F
:1008D00008600E48006840F080700C49086000BF56
:1008E0000A480068400E0028FAD00848406840F0E6
:1008F00002000649486005E004484068C0F38705E7
:1009000005F00305022DF7D130BD000000100240B4
:10091000002002407047000010B51348006840F006
:1009200001001149086008464068104908400E4916
:100930004860084600680E4908400B4908600846B0
:10094000006820F4802008600846406820F4FE001B
:1009500048604FF41F008860FFF7FFFE4FF0006013
:100960000449086010BD0000001002400000FFF8BC
:10097000FFFFF6FE08ED00E010B51048008800F01B
:100980000100C0B10D48008820F001000B4908802B
:100990000220FFF7C3FE0A49086000F047F8094843
:1009A000016807480068FFF781FE074908600846AC
:1009B0000068FFF747FF002010BD0000102C014029
:1009C000040000200C0000200800002070B505463F
:1009D0000C461348806940F4006011498861114851
:1009E0000580001F04800F482038008840F0010077
:1009F0000C49203908800846008840F040000880F3
:100A000008482C38008840F0010006492C3908803D
:100A10000223192203210120FFF780FD70BD000091
:100A2000001002402C2C014000BFFEE741F6BC3014
:100A3000074909684242914202DA4142044A116080
:100A400003490968814201DD0149086070470000DF
:100A5000080000200FB4054B10B503A9044A029802
:100A600000F018F810BC5DF814FB0000E90B00085A
:100A70001C00002002E008C8121F08C1002AFAD199
:100A800070477047002001E001C1121F002AFBD10E
:100A9000704700002DE9FF4F89B09B4604460025B2
:100AA00006E025280BD05A460B999047641C6D1C14
:100AB00020780028F5D10DB02846BDE8F08F00273A
:100AC000B8460122474900E0074314F8013F203BA4
:100AD00002FA03F00842F7D120782E2819D114F831
:100AE000010F47F004072A280ED06FF02F0220785C
:100AF000A0F1300109290CD808EB880102EB410173
:100B000000EB0108641CF2E70A98641C50F8048B9F
:100B10000A9020780028CED0642808D0692806D012
:100B200075281ED05A460B9990476D1C58E00A99BB
:100B30004FF00A0901C90A91002802DA40422D212A
:100B400002E0390504D52B218DF82010012103E0A6
:100B5000F90704D02021F7E78A4608AE0DE000210E
:100B6000FAE70A994FF00A0901C90A91F7E74946DD
:100B7000FFF7FDFB303106F8011D0028F7D1ADEB82
:100B8000060000F12009780701D44FF00108C8459C
:100B900002DDA8EB090000E000208046002706E007
:100BA00008A85A46C05D0B9990476D1C7F1C57459D
:100BB000F6DB04E030205A460B9990476D1CB8F1E3
:100BC0000001A8F10108F5DC05E016F8010B5A4612
:100BD0000B9990476D1CB9F10001A9F10109F4DCF2
:100BE000641C65E70928010000BF054A128802F06D
:100BF0004002002AF9D0C2B2014B1B1D1A80704777
:100C0000003801400920FFF73DFE4FF4E131482054
:100C100000F022F8002141F61F40FFF7F3FCFFF738
:100C200009FC41F61F416320FFF7D0FE04E00348B2
:100C3000016803A0FFF70EFFF9E7000004000020A1
:100C400025640D0A000000000146002901DA48422F
:100C500000E00846704700002DE9F05F05460E46AB
:100C60003001FFF752FB8146284905FB01F0FFF7F1
:100C70004CFB82464946FFF701FB07463846FFF723
:100C800062FB84B22046FFF740FB83463946FFF7FC
:100C9000C0FA82464FF08341FFF7BEFA8146FFF764
:100CA00052FB80464FF6FF7000EA041404EB080084
:100CB00084B21748806940F00400154988610846ED
:100CC000806940F4804088611248006820F47F60A9
:100CD000104908600846006840F40B6008600C4842
:100CE000C06840F480400A49C8600846C06820F4E3
:100CF0008040C86008480480001D008842F20C0152
:100D000008430549091D0880BDE8F09F40420F00D7
:100D10000010024004080140083801403C0D000862
:100D20000000002020000000740A00085C0D00088C
:100D30002000002000040000840A000801000000D8
:100D40000000000000000000085200000000000049
:0C0D500000000000000000000000000097
:0400000508000131BD
:00000001FF
