:020000040800F2
:100000000004002045010008F1020008E902000890
:10001000ED0200088D010008C10800080000000082
:100020000000000000000000000000007105000852
:100030009101000800000000F30200085D060008BE
:100040005F0100085F0100085F0100085F01000810
:100050005F0100085F0100085F0100085F01000800
:100060005F0100085F0100085F0100085F010008F0
:100070005F0100085F0100085F0100085F010008E0
:100080005F0100085F0100085F0100085F010008D0
:100090005F0100085F0100085F0100085F010008C0
:1000A0005F0100085F0100085F0100085F010008B0
:1000B0005F0100085F0100085F0100085F010008A0
:1000C0005F0100085F0100085F0100085F01000890
:1000D0005F0100085F0100085F0100085F01000880
:1000E0005F0100085F0100085F0100085F01000870
:1000F0005F0100085F0100085F0100085F01000860
:100100005F0100085F0100085F0100085F0100084F
:100110005F0100085F0100085F0100085F0100083F
:100120005F0100085F0100085F0100085F0100082F
:10013000DFF80CD000F018F8004800472D0900083F
:10014000000400200648804706480047FEE7FEE717
:10015000FEE7FEE7FEE7FEE7FEE7FEE7FEE7FEE777
:100160006106000831010008064C074D06E0E06812
:1001700040F0010394E8070098471034AC42F6D3EE
:10018000FFF7DAFF580900086809000800BFFEE71A
:10019000704700000549096821F01001034A116009
:1001A00011460968014311607047000000200240B9
:1001B00001460020034A106800F038000843106030
:1001C00070470000002002402DE9F0410246002562
:1001D0000026002000230024002791F803C00CF023
:1001E0000F0591F803C00CF0100CBCF1000F03D008
:1001F00091F802C04CEA050591F800C0BCF1000F6F
:1002000031D0146800202BE04FF0010C0CFA00F301
:10021000B1F800C00CEA03069E4220D183004FF0E3
:100220000F0C0CFA03F7BC4305FA03FC4CEA040478
:1002300091F803C0BCF1280F06D14FF0010C0CFA65
:1002400000FCC2F814C00AE091F803C0BCF1480FEA
:1002500005D14FF0010C0CFA00FCC2F810C0401C94
:100260000828D1D31460B1F800C0BCF1FF0F34DD11
:10027000546800202EE000F1080C4FF0010808FA45
:100280000CF3B1F800C00CEA03069E4221D18300B2
:100290004FF00F0C0CFA03F7BC4305FA03FC4CEAD1
:1002A000040491F803C0BCF1280F05D100F1080C3B
:1002B00008FA0CF8C2F8148091F803C0BCF1480F9A
:1002C00007D100F1080C4FF0010808FA0CF8C2F849
:1002D0001080401C0828CED35460BDE8F0810AB1DC
:1002E000016100E04161704700BFFEE700BFFEE72B
:1002F0007047704729B1064AD2690243044BDA615C
:1003000004E0034AD2698243014BDA61704700007E
:100310000010024029B1064A92690243044B9A61D7
:1003200004E0034A92698243014B9A6170470000DE
:100330000010024010B500F02FF84FF4803000F0AC
:1003400083F800F0DFF80446012C24D14FF4E011CB
:10035000000400F0BDF8002000F06AF8A00200F0F0
:1003600099F8002000F0A2F80220FFF721FF1020EA
:10037000FFF710FF012000F0A5F800BF392000F0C2
:1003800031F80028FAD0022000F0B0F800BF00F0E9
:1003900047F80828FBD110BD0F48006840F0010065
:1003A0000D490860084640680C4908400A49486001
:1003B000084600680A49084007490860084600687E
:1003C00020F4802008600846406820F4FE00486061
:1003D0004FF41F0088607047001002400000FFF8D3
:1003E000FFFFF6FE10B501460022002300204A114F
:1003F000012A02D1094C236806E0022A02D1074CE7
:10040000236A01E0054C636A01F01F020124944055
:100410001C400CB1012000E0002010BD0010024083
:100420000248406800F00C007047000000100240D5
:1004300001460020034A506820F0F0000843506055
:1004400070470000001002401149096821F4803112
:100450000F4A11601146096821F480211160B0F53E
:10046000803F03D0B0F5802F0ED106E0084909681F
:1004700041F48031064A116007E00549096841F4FA
:10048000A021034A116000E000BF00BF70470000D8
:100490000010024001460020034A506820F4E0604A
:1004A00008435060704700000010024001460020E1
:1004B000034A506820F4605040EAC1005060704721
:1004C00000100240014908667047000000004242E7
:1004D00002460020044B586820F47C1042EA0103D5
:1004E0001843014B5860704700100240014600203D
:1004F000034A506820F00300084350607047000032
:100500000010024038B5002000900024002500BFF4
:100510003120FFF767FF05460098401C00900098C7
:10052000B0F5A06F01D0002DF2D03120FFF75AFFB7
:1005300008B1012400E00024204638BD08B501219F
:100540000420FFF7E7FE1020ADF800008DF803004F
:1005500003208DF8020069460448FFF735FE0022AB
:1005600010210248FFF7BBFE08BD00000008014053
:10057000704710B500F002F810BD00000CB5002067
:10058000019000903348006840F4803031490860A1
:1005900000BF3048006800F4003000900198401C13
:1005A0000190009818B90198B0F5A06FF1D12948D1
:1005B000006800F4003010B10120009001E000203C
:1005C00000900098012843D12348006840F01000B3
:1005D000214908600846006820F0030008600846CA
:1005E000006840F0020008601A48406819494860F5
:1005F0000846406848600846406840F480604860AB
:100600000846406820F47C1048600846406840F482
:10061000E81048600846006840F08070086000BF3D
:100620000C48006800F000700028F9D009484068C4
:1006300020F00300074948600846406840F0020087
:10064000486000BF0348406800F00C000828F9D15A
:100650000CBD000000100240002002407047000066
:1006600010B51348006840F00100114908600846C1
:100670004068104908400E494860084600680E4925
:1006800008400B4908600846006820F48020086094
:100690000846406820F4FE0048604FF41F00886060
:1006A000FFF767FF4FF000600449086010BD0000CD
:1006B000001002400000FFF8FFFFF6FE08ED00E02A
:1006C00030B589B005460C4601210220FFF712FE25
:1006D00001210820FFF71EFE01210846FFF71AFE40
:1006E0000120ADF8200018208DF8230003208DF89C
:1006F000220008A91348FFF767FDADF80850ADF8D0
:1007000004400020ADF80600ADF80A0001A90E482B
:1007100000F084F86020ADF810000020ADF818005B
:100720000120ADF8120004A9074800F01BF80821C9
:10073000054800F067F80121034800F007F809B008
:1007400030BD0000000C01400004004021B10288CF
:1007500042F00102028004E002884FF6FE731A4064
:100760000280704770B5002400220023058C4FF6EC
:10077000FF6635400584028C8388848B4FF68F7525
:100780002C404FF6FC752C400D882C434FF6FF553E
:100790002A400D894FF6FF7606EA05252A434D8843
:1007A00006EA05252A43154DA84202D0144DA84259
:1007B0001DD14FF2FF752A404D894FF6FF7606EAAC
:1007C00005252A434FF6FF352A408D8806EA052580
:1007D0002A434EF6FF752B404DF6FF752B408D8951
:1007E00006EA05152B43CD8906EA05152B438380C0
:1007F0008483CD888587028470BD0000002C014071
:10080000003401400A460021818B4FF6F7731940EE
:10081000114381837047818770470000002202885E
:100820001D4B98420ED01D4B98420BD0B0F1804F1B
:1008300008D01B4B984205D01A4B984202D01A4B55
:10084000984204D14FF68F731A404B881A43174BC6
:10085000984207D0164B984204D04FF6FF431A40F7
:10086000CB881A4302808B8883850B8803850A4BCB
:1008700098420BD0094B984208D00E4B984205D0B5
:100880000D4B984202D00D4B984201D10B7A038652
:100890000123838270470000002C01400034014096
:1008A0000004004000080040000C00400010004020
:1008B0000014004000400140004401400048014055
:1008C00000BFFEE702E008C8121F08C1002AFAD1E3
:1008D00070477047002001E001C1121F002AFBD1C0
:1008E000704700B5034603E04FF47A7000F006F855
:1008F000181EA3F101018BB2F6D100BD00EBC001BF
:10090000C9004FF0E0225161002191610521116180
:1009100000BF4FF0E021096901F480310029F8D0CF
:1009200004214FF0E0221161704700004FF4FA708B
:10093000FFF7D7FFFFF7FEFCFFF700FE17214EF68B
:100940005F20FFF7BDFE04E040F2DC510148FFF7F5
:1009500062FFF9E700040040680900080000002079
:0809600000040000D4080008A7
:0400000508000131BD
:00000001FF
