:020000040800F2
:1000000020050020450100084D0100084F010008AF
:1000100051010008530100085501000800000000CC
:100020000000000000000000000000005701000870
:1000300059010008000000005B0100085D01000894
:100040005F0100085F0100085F0100085F01000810
:100050005F0100085F0100085F0100085F01000800
:100060005F0100085F0100085F0100085F010008F0
:100070005F0100085F0100085F0100085F010008E0
:100080005F0100085F0100085F0100085F010008D0
:100090005F0100085F0100085F0100085F010008C0
:1000A0005F0100085F0100085F0100085F010008B0
:1000B000490E0008610E00084D0F00085F0100089E
:1000C0005F0100085F0100085F0100085F01000890
:1000D0005F010008591300085F0100085F01000874
:1000E0005F0100085F0100085F0100085F01000870
:1000F0005F0100085F0100085F0100085F01000860
:100100005F0100085F0100085F0100085F0100084F
:100110005F0100085F0100085F0100085F0100083F
:100120005F0100085F0100085F0100085F0100082F
:10013000DFF80CD000F012F9004800475118000811
:10014000200500200648804706480047FEE7FEE7F6
:10015000FEE7FEE7FEE7FEE7FEE7FEE7FEE7FEE777
:10016000A90B000831010008F0B480EA0102D40FA5
:100170004200B2EB410F02D20246084611464A0045
:1001800042D0C30DDDB2C1F3C752AD1A202D35DA0E
:10019000C1F3160141F4000204B15242C5F1200638
:1001A00002FA06F12A411044B3EBD05F23D0C4B168
:1001B000012DA0EBC35009DCF0BC4FF0004202EA75
:1001C000C352DBB200F5000000F099B8400000F126
:1001D000807000EBC350A0F1807040EAD1704900FC
:1001E00009E0490841EAC071A0EBC35000F50000E6
:1001F000400800EBC350F0BC00F078B86142012227
:1002000002EB4101001BF6E7F0BC704781F00041B2
:10021000AAE780F00040A7E780EA010210B502F0EB
:100220000043400022D04A001FD0010E01EB1261B2
:10023000C0F35600C2F3560240F4000042F400023C
:10024000A0FB022000047F39140400D0401C50EAB7
:10025000124001D44000491EC2B20C0604EBD0107B
:10026000401C4008802A02D003E0002010BD20F08E
:100270000100002900DA0020184310BDC10F80EAF8
:10028000E0700844CA079623002100F038B800F057
:10029000004220F00040C10DC0F3160040F4000001
:1002A0007F2901DA00207047962903DCC1F196010D
:1002B000C84001E096398840002AF4D04042704797
:1002C00030B50B46014600202022012409E021FA26
:1002D00002F59D4205D303FA02F5491B04FA02F523
:1002E0002844151EA2F10102F1DC30BD0029A8BF8F
:1002F0007047401C490008BF20F00100704710B44F
:10030000B0FA80FC00FA0CF050EA010404BF10BC03
:10031000704749B1CCF1200421FA04F411FA0CF130
:1003200018BF012121430843A3EB0C01CB1D4FEA69
:1003300000614FEA102042BF002010BC704700EB64
:10034000C35010440029A4BF10BC7047401C490092
:1003500008BF20F0010010BC70470000064C074D9C
:1003600006E0E06840F0010394E807009847103485
:10037000AC42F6D3FFF7E0FECC180008EC180008FA
:1003800000B587B00121084600F0F4FA01210420ED
:1003900000F000FB0320ADF8000004208DF80300FE
:1003A00069461E4800F08AF804A800F0C5FF002046
:1003B000ADF810004FF6FF70ADF814000020ADF856
:1003C0001600ADF8120004A94FF0804000F062FF63
:1003D00000231A4603214FF0804000F0F0FD01A8F1
:1003E00000F076FE0A20ADF80C0001A9400700F0ED
:1003F00019FE0121880700F0C1FD01221146900776
:1004000000F06FFE00214FF0804000F014FF01214A
:10041000880700F0B9FD07B000BD000000080140EA
:1004200000B587B00121042000F0A4FA01210820C2
:1004300000F0B0FAC020ADF8000004208DF80300F1
:1004400069461C4800F03AF804A800F075FF002047
:10045000ADF810004FF6FF70ADF814000020ADF8B5
:100460001600ADF8120004A9134800F013FF002392
:100470001A460321104800F0A2FD01A800F028FE52
:100480000A20ADF80C0001A90B4800F0CBFD0121BA
:10049000094800F073FD01221146074800F021FED3
:1004A0000021054800F0C7FE0121034800F06CFD63
:1004B00007B000BD000C0140000800402DE9F041EC
:1004C000024600250026002000230024002791F882
:1004D00003C00CF00F0591F803C00CF0100CBCF138
:1004E000000F03D091F802C04CEA050591F800C056
:1004F000BCF1000F31D0146800202BE04FF0010C4C
:100500000CFA00F3B1F800C00CEA03069E4220D1B9
:1005100083004FF00F0C0CFA03F7BC4305FA03FC01
:100520004CEA040491F803C0BCF1280F06D14FF047
:10053000010C0CFA00FCC2F814C00AE091F803C0E8
:10054000BCF1480F05D14FF0010C0CFA00FCC2F8C9
:1005500010C0401C0828D1D31460B1F800C0BCF111
:10056000FF0F34DD546800202EE000F1080C4FF03E
:10057000010808FA0CF3B1F800C00CEA03069E4229
:1005800021D183004FF00F0C0CFA03F7BC4305FA9E
:1005900003FC4CEA040491F803C0BCF1280F05D118
:1005A00000F1080C08FA0CF8C2F8148091F803C0A6
:1005B000BCF1480F07D100F1080C4FF0010808FA10
:1005C0000CF8C2F81080401C0828CED35460BDE857
:1005D000F081416170470161704700002DE9F04FE3
:1005E00085B004460D46274E3746DFF89C80601BD9
:1005F000264908600968264A1268022303FB121183
:10060000244A12688818FFF739FE41460290FFF726
:1006100003FE83461D480068FFF730FE3946009010
:10062000FFF7FAFD194902900968194A1268881AF9
:10063000FFF724FE31460090FFF7EEFD019002998E
:10064000FFF792FD59460390FFF78EFD8246124850
:100650000068FFF713FE51460490FFF785FD8146C1
:10066000FFF715FE0C490860094800680949086051
:1006700006480068064908600748006805B0BDE8FC
:10068000F08F000000002041000040402C000020BE
:100690003400002038000020300000202DE9F04F09
:1006A00085B004460D46274E3746DFF89C80601B18
:1006B000264908600968264A1268022303FB1211C2
:1006C000244A12688818FFF7D9FD41460290FFF7C7
:1006D000A3FD83461D480068FFF7D0FD3946009012
:1006E000FFF79AFD194902900968194A1268881A99
:1006F000FFF7C4FD31460090FFF78EFD019002998F
:10070000FFF732FD59460390FFF72EFD824612484F
:100710000068FFF7B3FD51460490FFF725FD8146C1
:10072000FFF7B5FD0C4908600948006809490860F1
:1007300006480068064908600748006805B0BDE83B
:10074000F08F000000002041000040403C000020ED
:1007500044000020480000204000002010B504465E
:10076000002C0ADD4FF400610C48FFF734FF4FF412
:1007700080510A48FFF72DFF09E04FF480510748E8
:10078000FFF729FF4FF400610448FFF722FF2046DE
:1007900001F094F80249088010BD0000000C0140EF
:1007A000342C014010B50446002C0ADD4FF4804182
:1007B0000C48FFF710FF4FF400410A48FFF709FF0C
:1007C00009E04FF400410748FFF705FF4FF480416F
:1007D0000448FFF7FEFE204601F070F80249088049
:1007E00010BD0000000C0140402C014008B5012163
:1007F000082000F0CFF84FF45840ADF8000010206A
:100800008DF8030003208DF8020069460648FFF7C3
:1008100055FE4FF4C0510448FFF7DDFE4FF4404150
:100820000148FFF7D8FE08BD000C014070B500215B
:1008300000230F22C47804B3154C246804F4E06448
:10084000C4F5E064210AC1F10403CA40447804FA03
:1008500003F184781440214309010E4C0678A15518
:10086000047804F01F050124AC4005786D11AD003B
:1008700005F1E025C5F8004109E0047804F01F0502
:100880000124AC40044D0678761145F8264070BD31
:100890000CED00E000E400E080E100E008B501219B
:1008A000C80200F077F80121052000F073F84FF43A
:1008B0008070ADF8000018208DF8030003208DF83B
:1008C000020069460848FFF7F9FD4FF40060ADF8F3
:1008D000000018208DF8030003208DF802006946FF
:1008E0000148FFF7EBFD08BD0008014000B587B0E7
:1008F00040F60F60ADF814000120ADF810000020A4
:10090000ADF81600ADF812008DF8180004A91848CB
:1009100000F0C0FC6020ADF800000120ADF802003E
:1009200040F20770ADF806000020ADF80800ADF801
:100930000C0069460E4800F0DDFB69460C4800F0EB
:100940002FFC08210A4800F021FC0821084800F08B
:1009500065FC0121064800F005FB0121044800F078
:1009600013FB0121024800F01BFB07B000BD000093
:10097000002C014029B1064AD2690243044BDA61D6
:1009800004E0034AD2698243014BDA6170470000F8
:100990000010024029B1064A92690243044B9A6151
:1009A00004E0034A92698243014B9A617047000058
:1009B0000010024030B500210022002400232D4DFC
:1009C0006D6805F00C0121B1042905D0082923D157
:1009D00005E0294D056022E0274D05601FE0254D0B
:1009E0006D6805F47012234D6D6805F4803402259E
:1009F00005EB92421CB9214D554305600BE01D4D9E
:100A00006D6805F400351DB11C4D5543056002E0CD
:100A1000194D5543056002E0174D056000BF00BF4A
:100A2000144D6D6805F0F0010909154D6B5C056802
:100A3000DD4045600F4D6D6805F4E061090A104D19
:100A40006B5C4568DD4085600A4D6D6805F460515A
:100A5000C90A0B4D6B5C4568DD40C560054D6D688E
:100A600005F44041890B074D6B5CC568B5FBF3F598
:100A7000056130BD0010024000127A0000093D00FF
:100A800000000020100000200146022902D00429A5
:100A900010D108E04FF08042928C10B200224FF04B
:100AA00080439A8408E0054A128810B20022034B62
:100AB0001A8001E0002000BF00BF704724080040FA
:100AC00010B500F001F810BD0CB5002001900090A9
:100AD0003348006840F480303149086000BF304836
:100AE000006800F4003000900198401C01900098CC
:100AF00018B90198B0F5A06FF1D12948006800F449
:100B0000003010B10120009001E00020009000981A
:100B1000012843D12348006840F0100021490860B3
:100B20000846006820F0030008600846006840F0AE
:100B3000020008601A484068194948600846406841
:100B400048600846406840F4806048600846406855
:100B500020F47C1048600846406840F4E810486083
:100B60000846006840F08070086000BF0C480068CC
:100B700000F000700028F9D00948406820F0030018
:100B8000074948600846406840F00200486000BFDE
:100B90000348406800F00C000828F9D10CBD0000A3
:100BA000001002400020024010B51348006840F0D9
:100BB00001001149086008464068104908400E4984
:100BC0004860084600680E4908400B49086008461E
:100BD000006820F4802008600846406820F4FE0089
:100BE00048604FF41F008860FFF76AFF4FF0006015
:100BF0000449086010BD0000001002400000FFF82A
:100C0000FFFFF6FE08ED00E0F0B50C4615460022A9
:100C10000021068C4FF6FE773E400684028B018C45
:100C20004FF60C7632407E1C06EA03162E43324302
:100C3000104EB0420ED0104EB0420BD0B0F1804FEB
:100C400008D00E4EB04205D00D4EB04202D00D4E2F
:100C5000B04206D14FF6FD76314044F001063143F3
:100C600005E04FF6F576314044F00106314302834A
:100C70000184F0BD002C014000340140000400401C
:100C800000080040000C0040F0B50C46154600225C
:100C900000210026078C4FF6EF7C07EA0C0707843B
:100CA000028B018C4FF6FF7707EA041640F6FF47E8
:100CB0003A404FF6FF7707EA03373A434FF6FF779C
:100CC00007EA05273A43114FB8420ED0104FB842F9
:100CD0000BD0B0F1804F08D00E4FB84205D00E4F68
:100CE000B84202D00D4FB84206D14FF6DF773940F7
:100CF00046F01007394305E04FF65F77394044F07E
:100D00001007394302830184F0BD0000002C01402C
:100D1000003401400004004000080040000C004086
:100D2000F0B50C461546002200210026078C4FF630
:100D3000FF6C07EA0C070784828B018C4FF6FF7764
:100D400007EA04264FF60C773A404FF6FF7707EA9A
:100D500003172F433A43114FB8420ED0104FB842F9
:100D60000BD0B0F1804F08D00E4FB84205D00E4FD7
:100D7000B84202D00D4FB84206D14FF6FF57394066
:100D800046F48077394305E04FF2FF57394044F489
:100D90008077394382830184F0BD0000002C01403C
:100DA000003401400004004000080040000C0040F6
:100DB000F0B50C461546002200210026078C4EF6A1
:100DC000FF7C07EA0C070784828B018C4FF6FF77C4
:100DD00007EA043640F6FF473A404FF6FF7707EA46
:100DE00005273A434FF6FF7707EA03373A43114F97
:100DF000B8420ED0104FB8420BD0B0F1804F08D09F
:100E00000E4FB84205D00E4FB84202D00D4FB84237
:100E100006D14DF6FF77394046F48057394305E057
:100E200047F6FF57394044F48057394382830184A1
:100E3000F0BD0000002C01400034014000040040DF
:100E400000080040000C00404FF08040008A4FF046
:100E50008040008A20F001004FF0804108827047F6
:100E600010B501211A4800F0CBF858B30220FFF763
:100E70000BFE184908600420FFF706FE16490860BB
:100E80001648016813480068FFF7A8FB144908607A
:100E900008460068FFF762FC41F6BC31104800F0DC
:100EA000C2FB104801680C480068FFF7F7FB0E49C9
:100EB000086008460068FFF775FC41F6BC310A4837
:100EC00000F0B1FB0121024800F05BF810BD00000A
:100ED000000400401400002018000020240000201E
:100EE0001C00002028000020200000207FB50546BF
:100EF0000C4601210220FFF73DFDADF80850ADF88A
:100F000004400020ADF80A00ADF8060001A90E4823
:100F100000F0C0F9012211460B4800F0E2F81D2054
:100F20008DF8000000208DF8010003208DF80200EC
:100F300001208DF803006846FFF778FC0121024884
:100F400000F022F87FBD0000000400400448008843
:100F50000348008820F00100014908807047000024
:100F60001008004021B1028842F08002028004E0B3
:100F700002884FF67F731A4002807047CA4302828C
:100F80007047CA430282704721B1028842F00102D1
:100F9000028004E002884FF6FE731A400280704718
:100FA00031B1B0F8442042F40042A0F8442005E0FA
:100FB000B0F84420C2F30E02A0F844207047F0B508
:100FC0000C4615461E460021002200230189028B93
:100FD000038C4FF6F877394021434FF6FC473A40EF
:100FE00040F201173A434FF6DD773B404FF6FF776B
:100FF00007EA06172F433B43018102830384F0BDB8
:1010000030B50246002000230024158A05EA0103BA
:10101000958905EA010413B10CB1012000E000201C
:1010200030BD000070B505460C46244885420ED000
:10103000234885420BD0B5F1804F08D02148854226
:1010400005D02148854202D02048854200D100E0E9
:1010500000BF208850B92389A28861882846FFF7FD
:10106000D3FDE188284600F0E8F825E02088042830
:101070000AD12389A28861882846FFF705FEE18806
:10108000284600F0E3F817E0208808280AD12389D1
:10109000A28861882846FFF743FEE188284600F0D1
:1010A000E2F809E02389A28861882846FFF780FEDC
:1010B000E188284600F0E0F870BD0000002C0140F7
:1010C000003401400004004000080040000C0040D3
:1010D000002101804180012181800021C1800181A6
:1010E00070471AB183890B43838102E083898B4364
:1010F0008381704770B5002400220023058C4FF6D1
:10110000FE7635400584028C8388048B4FF68F75FC
:101110002C40B51E2C400D882C43751E2A400D898D
:101120002A434D882A43144DA8420BD0134DA842A0
:1011300008D0134DA84205D0124DA84202D0124D3E
:10114000A84213D14FF6F7752A404D892A434FF62E
:10115000FB752A408D882A434FF6FF652B404FF6DA
:10116000FF552B408D892B43CD892B4383800483EE
:10117000CD888586028470BD002C0140003401407A
:101180000040014000440140004801400A4600215F
:10119000018B4FF6F773194011430183704700002C
:1011A00070B5002200230024058C4EF6FF763540F2
:1011B0000584038C8488828B48F6FF752A404FF69D
:1011C000FF452A400D884FF6FF7606EA05252A439B
:1011D0004DF6FF752B400D8906EA05352B434D88EA
:1011E00006EA05352B430B4DA84202D00A4DA84212
:1011F00008D14BF6FF752C408D894FF6FF7606EA35
:1012000085152C4384808283CD88A0F840500384C8
:1012100070BD0000002C0140003401400A4600214E
:10122000818B4FF2FF7319404FF6FF7303EA0223DD
:1012300019438183704781847047028B4FF6F373A3
:101240001A400283028B0A4302837047028B4FF2DB
:10125000FF331A400283028B4FF6FF7303EA012328
:101260001A4302837047828B4FF6F3731A408283CE
:10127000828B0A4382837047828B4FF2FF331A407E
:101280008283828B4FF6FF7303EA01231A43828322
:1012900070470000002202881D4B98420ED01D4B63
:1012A00098420BD0B0F1804F08D01B4B984205D02C
:1012B0001A4B984202D01A4B984204D14FF68F73C2
:1012C0001A404B881A43174B984207D0164B984246
:1012D00004D04FF6FF431A40CB881A4302808B8814
:1012E00083850B8803850A4B98420BD0094B9842A3
:1012F00008D00E4B984205D00D4B984202D00D4BB2
:10130000984201D10B7A0386012383827047000043
:10131000002C01400034014000040040000800405F
:10132000000C00400010004000140040004001404C
:1013300000440140004801404FF6FF7181800021C8
:101340000180C18041800172704710B5FFF7A6FA95
:10135000FFF7CCFA10BD000010B540F225511F4830
:1013600000F0A0F8002838D01C4800F057F9C4B2AB
:1013700021461BA000F062F91A48008800F40040E2
:1013800058BB1848008800F4804060B10A2C03D094
:1013900000201449088020E01248008840F40040F2
:1013A0001049088019E00D2C06D10E48008840F441
:1013B00080400C49088010E00A480088C0F30D0006
:1013C00009490C5407480088401C06490880084613
:1013D0000088C72801DD0020088010BD00380140CA
:1013E00025630000500000205400002010B586B096
:1013F0000446012144F20400FFF7CCFA4FF40070D8
:10140000ADF8140003208DF8160018208DF8170091
:1014100005A91C48FFF752F84FF48060ADF814009E
:1014200004208DF8170005A91648FFF747F8252076
:101430008DF8000003208DF801008DF802000120D6
:101440008DF803006846FFF7F1F901940020ADF82C
:101450000800ADF80A00ADF80C00ADF810000C2043
:10146000ADF80E0001A9084800F06CF8012240F226
:101470002551054800F040F80121034800F006F826
:1014800006B010BD000801400038014021B182893A
:1014900042F40052828104E082894DF6FF731A40C3
:1014A0008281704770B50246002400230025002089
:1014B00040F66A16B14200D100BFC1F3421501F0F7
:1014C0001F03012606FA03F3012D02D1968933404A
:1014D00006E0022D02D1168A334001E0968A33409D
:1014E0000C12012606FA04F41688344013B10CB12C
:1014F000012000E0002070BDF0B503460024002666
:101500000025002040F66A17B94200D100BF1846F6
:10151000C1F3421401F01F06012707FA06F5012C5A
:1015200001D10C3004E0022C01D1103000E0143065
:101530001AB107682F43076002E00768AF430760EE
:10154000F0BD00002DE9F04786B005460E460024A8
:10155000A24600BFA1460027B08900B100BF2F46B8
:101560002C8A4CF6FF700440F08804432C82AC892E
:101570004EF6F3100440B08831890843718908435E
:101580000443AC81AC8A4FF6FF400440B089044369
:10159000AC8201A8FFF70EFA1F48874202D1DDF89E
:1015A00010A001E0DDF80CA0A88900F4004040B1D3
:1015B0000AEBCA0000EB0A1031684900B0FBF1F8F1
:1015C00007E00AEBCA0000EB0A1031688900B0FBA3
:1015D000F1F86420B8FBF0F004012009642101FB5C
:1015E0001089A88900F4004040B1322000EBC90006
:1015F000B0FBF1F000F00700044308E0322000EBFC
:1016000009106421B0FBF1F000F00F0004432C81BD
:1016100006B0BDE8F0870000003801400146888828
:10162000C0F3080070474B4202689A4201DA4A420E
:10163000026002688A4200DD016070470FB4054B0A
:1016400010B503A9044A029800F018F810BC5DF820
:1016500014FB0000351800084C00002002E008C808
:10166000121F08C1002AFAD170477047002001E01C
:1016700001C1121F002AFBD1704700002DE9FF4F66
:101680008BB09A460F460546002606E025280BD06B
:1016900052460D9990476D1C761C28780028F5D18C
:1016A0000FB03046BDE8F08F0024A046012260490B
:1016B00000E0044315F8013F203B02FA03F0084222
:1016C000F7D128782E2817D115F8010F44F004041B
:1016D0002A280ED06FF02F022878A0F130010929B6
:1016E0000AD808EB880102EB410100EB01086D1CF0
:1016F000F2E757F8048B6D1C287869283ED006DC89
:101700000028CDD063280BD0642804D136E073289C
:1017100010D075284BD052460D999047761C85E025
:1017200017F8040B8DF8000000208DF80100E94641
:10173000012003E057F8049B4FF0FF3061074FF0A2
:10174000000401D40AE0641C44450DDA8442FADB4B
:1017500019F804100029F6D106E0641C8442FCDB71
:1017600019F804100029F8D1264404E019F8010BF7
:1017700052460D999047641EF8D257E001CF4FF0C2
:101780000A0B002802DA40422D2102E0210504D58F
:101790002B218DF82410012103E0E10705D0202141
:1017A000F7E70DF1200908910CE00021F9E701CFDE
:1017B0004FF00A0BF9E75946FEF782FD01F13002BE
:1017C00009F8012D0028F6D1ADEB090000F1200B3E
:1017D000600701D44FF00108D84502DDA8EB0B00EB
:1017E00000E000208046002406E009A85246005D83
:1017F0000D999047641C761C08988442F5DB04E040
:10180000302052460D999047761CB8F10001A8F19E
:101810000108F5DC05E019F8010B52460D999047D7
:10182000761CBBF10001ABF1010BF4DC6D1C34E75D
:101830000928010000BF054A128802F04002002A70
:10184000F9D0C2B2014B1B1D1A807047003801400D
:101850004FF4E130FFF7CAFD41F61F416320FFF767
:1018600045FBFFF772FDFEF7C1FFFEF789FDFEF7AE
:10187000D7FD09E00548016805A0FFF7DFFE09482C
:10188000016809A0FFF7DAFEF4E700001400002069
:10189000B5E7BBFA31CBD9B6C8D6B5CEAAA3BA251F
:1018A000640D0A0018000020B5E7BBFA32CBD9B6A8
:1018B000C8D6B5CEAAA3BA25640D0A0001460029F0
:1018C00001DA484200E0084670470000EC180008C2
:1018D00000000020540000005C16000840190008B9
:1018E00054000020CC0400006C160008000000002A
:1018F00001020304010203040607080902040608A2
:1019000000000000000000000000000000000000D7
:101910003200000014000000000000000000000081
:1019200000000000000000000000000000000000B7
:1019300000000000000000000000000000000000A7
:0400000508000131BD
:00000001FF
