:020000040800F2
:1000000000060020C1010008851900080715000836
:1000100081190008010700086D2300080000000096
:10002000000000000000000000000000DD1B0008D0
:100030000D14000800000000291A0008551D0008D2
:10004000DB010008DB010008DB010008DB01000820
:10005000DB010008DB010008DB010008DB01000810
:10006000DB010008DB010008DB010008DB01000800
:10007000DB010008DB010008DB010008DB010008F0
:10008000DB010008DB010008DB010008DB010008E0
:10009000ED070008DB010008DB010008DB010008B8
:1000A000DB010008DB010008DB010008DB010008C0
:1000B000DB010008DB010008DB010008DB010008B0
:1000C000DB010008DB010008DB010008DB010008A0
:1000D000DB010008B11F0008DB010008DB0100089C
:1000E000DB010008DB010008DB010008DB01000880
:1000F000DB010008DB010008DB010008DB01000870
:10010000DB010008DB010008DB010008DB0100085F
:10011000DB010008DB010008111E0008DB010008FC
:10012000DB010008DB010008DB010008DB0100083F
:10013000DB010008DB010008DB010008DB0100082F
:10014000DB010008DB010008DB010008DB0100081F
:10015000DB010008DB010008DB010008DB0100080F
:10016000DB010008DB010008DB010008DB010008FF
:10017000DB010008DB010008DB010008DB010008EF
:10018000DB010008DB010008DB010008DB010008DF
:10019000DB010008DB010008DB010008DB010008CF
:1001A0000000000000000000DB010008DFF80CD0B8
:1001B00000F094F900480047652A00080006002076
:1001C0000648804706480047FEE7FEE7FEE7FEE7F1
:1001D000FEE7FEE7FEE7FEE7FEE7FEE7591D000843
:1001E000AD01000800F0004230F000400AD0C10D1F
:1001F00001F56071C0F3160042EA0151C2084007E0
:100200001143704700200146704701F0004330B4AD
:1002100021F0004150EA010206D00A0DA2F56072F9
:10022000C1F31301002A02DC30BC00207047440FE8
:1002300044EAC104C100E01830BC00EBC250AFF387
:1002400000800029A8BF7047401C490008BF20F06B
:100250000100704710B4B0FA80FC00FA0CF050EACC
:10026000010404BF10BC704749B1CCF1200421FA4D
:1002700004F411FA0CF118BF012121430843A3EB48
:100280000C01CB1D4FEA00614FEA102042BF002055
:1002900010BC704700EBC35010440029A4BF10BC31
:1002A0007047401C490008BF20F0010010BC704797
:1002B0002DE9FE4F804681EA0300C00F0C460090F6
:1002C00021F0004123F00045B8EB0200A94105D21E
:1002D0004046214690461C460B46024623F000400D
:1002E000104347D0270DC7F30A00C3F30A51029009
:1002F000401A019040286BDAC3F3130040F4801BCE
:100300000098924620B10023D2EB030A63EB0B0B5B
:1003100001985946C0F14002504600F0F1F80646F7
:100320000D4650465946019A00F0F9F810EB0800C6
:100330006141002487EA115284EAE7731A4340D0EE
:10034000009A62B3019A012A4FEA075215DC001B9A
:1003500061EB02014FF0004202EA0752CDE9004290
:10036000001C41F5801132462B4600F0F9F803B02D
:10037000BDE8F08F40462146F9E7001B61EB020122
:10038000001C41F5801300185B412018A2F50017EE
:1003900047EB030140EAD570B6196D4111E06D08D5
:1003A0004FEA360645EAC0754FEA0752001B61EB7B
:1003B0000201001C41F5801149084FEA3000001984
:1003C000514132462B4603B0BDE8F04F00F0B9B8BA
:1003D0000098012240000023D0EB020263EBE0739F
:1003E000009821464FEAE074B8EB000061EB04018D
:1003F000E9E783F000435BE781F0004158E72DE92E
:10040000F04D81EA030404F0004B21F0004514464E
:100410004FF0000A23F0004150EA050220D054EAD0
:1004200001021DD0C5F30A570246C5F31303C1F3F9
:100430001300C1F30A5640F4801543F48013A7EB70
:100440000608101BD64608F2FD3873EB050002D3F0
:1004500008F1010801E092185B41B8F1000F03DADE
:1004600000200146BDE8F08D00204FF480110646C3
:1004700084460EE0171B73EB050705D3121B63EBD5
:10048000050306434CEA010C49084FEA3000921874
:100490005B4150EA0107EDD152EA030012D082EA33
:1004A000040083EA0501084305D0101BAB4106D2C6
:1004B0000122002306E000224FF0004302E06FF02B
:1004C000010253101AEB06004CEB085110EB0A0026
:1004D00041EB0B01BDE8F04D00F033B8064C074D81
:1004E00006E0E06840F0010394E807009847103404
:1004F000AC42F6D3FFF75EFE382B0008582B0008FD
:10050000202A04DB203A00FA02F1002070479140D3
:10051000C2F1200320FA03F3194390407047202AC8
:1005200006DBCB17203A41FA02F043EAE07306E01B
:1005300041FA02F3D040C2F120029140084319462B
:10054000704710B5141E73F1000408DA401C41F125
:10055000000192185B411A4301D120F0010010BD47
:100560002DE9F04D92469B4611B1B1FA81F202E0BD
:10057000B0FA80F220329046FFF7C2FF04460F46E1
:1005800040EA0A0041EA0B0153465A46084313D099
:10059000114653EA010019D0C8F14002504600F05C
:1005A0009FF805460E46504659464246FFF7A8FFBB
:1005B000084305D0012004E020463946BDE8F08D0F
:1005C0000020054346EAE0762C4337430A9863054A
:1005D000E40AA0EB08000022FD0A44EA47540A306E
:1005E00002D500200146E9E7010510196941DDE95E
:1005F000084500196941BDE8F04DA2E72DE9FE4F1D
:1006000081EA030404F0004421F0004100944FF01B
:10061000000B23F0004350EA01045ED052EA0304C9
:100620005BD0C3F30A54C1F30A552C44A4F2F3344B
:100630000194A0FB0254C1F3130141F48011C3F3F0
:10064000130343F4801301FB024400FB034E840AAE
:10065000970A44EA815447EA8357A4FB0768029546
:100660008D0A05FB07854FEA932C04FB0C542705E4
:10067000029D4FEA065847EA1637B5EB08056EEBC0
:10068000070C870E920E47EA811742EA8312A7FBF6
:100690000201B6EB0B0164EB00042B0D43EA0C33B3
:1006A0005E1844EB1C50DA465146E7FB0201C5F3E5
:1006B00013044FEA0B3343EA14534FEA0432019C0C
:1006C00043EA0603A4F10C040294009CCDE900B4B3
:1006D000FFF746FF03B0BDE8F08F00200146F9E7C1
:1006E000202A04DB203A21FA02F00021704721FA87
:1006F00002F3D040C2F120029140084319467047EE
:1007000000BFFEE700B589B00121082001F08EF995
:100710000121480601F09AF900208DF822008DF899
:10072000230002208DF821008DF82000079007A9F2
:100730002C4800F079FE0120079007A9294800F015
:1007400073FE09220121274800F0B6FE092200218C
:10075000244800F0B1FE00208DF8160001208DF82D
:1007600017008DF8180000208DF819008DF81A0078
:100770008DF81B008DF812008DF8130002208DF803
:10078000140004208DF815000520ADF8100004A910
:10079000154800F0B8F900208DF80A008DF80B001C
:1007A00001208DF80C000020ADF8080001208DF824
:1007B0000D000020ADF80000ADF80200ADF8040017
:1007C000ADF80600684600F081F8012211461420B9
:1007D00001F0D9F801220221034800F08BF909B099
:1007E00000BD0000000C02400064004000B587B06E
:1007F00002210B4800F0EEF878B102AA0021084867
:1008000000F00BFA0698009002A80FC800F056FFFF
:100810000221034800F006F800BF07B000BD000049
:1008200000640040B1F5007F3AD00FDC202928D0C9
:1008300006DC01291CD004291DD0082940D11DE067
:10084000402921D0B1F5807F3AD126E0B1F5004FA3
:1008500031D006DCB1F5806F25D0B1F5006F2FD116
:1008600024E0B1F5803F12D0B1F5003F28D111E06E
:10087000154A826025E00822C26022E01022C26090
:100880001FE0082202611CE01022026119E0082228
:10089000426016E01022426013E00422426010E041
:1008A000042242600DE0042242600AE000228261DC
:1008B0000422426005E0002282610422426000E0DE
:1008C00000BF00BF704700000101010010B500210A
:1008D000837A012202FA03F13D4A126842F00102D2
:1008E0003B4B1A603A4A1C3212688A43384B1C331D
:1008F0001A60027BCAB9364A0C3212688A43344BFA
:100900000C331A604288C38842EA0343304A4032BB
:10091000847A42F834300288838842EA03432C4ABE
:100920004032847A02EBC4025360027B012A19D15F
:10093000274A0C3212680A43254B0C331A6042884E
:10094000038842EA0343224A4032847A42F8343030
:10095000C288838842EA03431D4A4032847A02EB0C
:10096000C4025360C27A3AB9194A121D12688A4306
:10097000174B1B1D1A6006E0154A121D12680A4328
:10098000134B1B1D1A60028932B9114A14321268C6
:100990008A430F4B14331A600289012A06D10C4A8C
:1009A000143212680A430A4B14331A60427B012A3C
:1009B00006D1074A1C3212680A43054B1C331A60E1
:1009C000034A126822F00102014B1A6010BD0000B8
:1009D0000066004070B504460D4600266069284058
:1009E000002871D0B5F5807F5CD010DC082D35D0A3
:1009F00006DC012D20D0022D24D0042D72D127E059
:100A0000102D31D0202D35D0402D6BD138E0B5F5EB
:100A1000004F60D009DCB5F5007F49D0B5F5806F97
:100A20004CD0B5F5006F5DD14FE0B5F5803F2DD0CE
:100A3000B5F5003F56D12FE0A0682D4900F0FCFA33
:100A4000064651E0E068032100F0F6FA06464BE066
:100A5000E068082100F0F0FA064645E0E068102161
:100A600000F0EAFA06463FE02069032100F0E4FACC
:100A7000064639E02069082100F0DEFA064633E038
:100A80002069102100F0D8FA06462DE060680821A0
:100A900000F0D2FA064627E06068102100F0CCFA98
:100AA000064621E0A069012100F0C6FA06461BE0D7
:100AB000A069022100F0C0FA064615E0A0690421F1
:100AC00000F0BAFA06460FE00FE0A069702100F0CE
:100AD000B3FA064608E06068042100F0ADFA064665
:100AE00002E0FFE7002600BF00E00026304670BDB0
:100AF000010101001AB143690B43436102E04369FC
:100B00008B434361704730B50246002000231468D0
:100B100024F002041460146844F00104146000E03E
:100B20005B1C546804F001041CB94FF6FF74A34227
:100B3000F6D1546804F001040CB900206CE08C7903
:100B4000012C04D1146844F08004146003E014689C
:100B500024F080041460CC79012C04D1146844F092
:100B60004004146003E0146824F0400414600C7A1C
:100B7000012C04D1146844F02004146003E01468CC
:100B800024F0200414604C7A012C04D1146844F041
:100B90001004146003E0146824F0100414608C7ACC
:100BA000012C04D1146844F00804146003E01468B4
:100BB00024F008041460CC7A012C04D1146844F0A9
:100BC0000404146003E0146824F0040414608C78B6
:100BD000A407CD7844EA05640D7944EA05444D79CB
:100BE00044EA05540D886D1E2C43D461146824F02A
:100BF00001041460002300E05B1C546804F001044D
:100C00001CB14FF6FF74A342F6D1546804F00104FE
:100C10000CB1002000E0012030BD10B500F5D87304
:100C200003EB01131B6803F004031372137A53B927
:100C300000F5D87303EB01131B6840F2FF7404EA5C
:100C40005353136009E000F5D87303EB01131B68DD
:100C50006FF0604404EAD303536000F5D87303EBEC
:100C600001131B6803F00203537200F5D87303EB02
:100C700001135B6803F00F03937200F5D87303EB65
:100C800001135B681B0AD37400F5D87303EB0113DF
:100C90009B68D37200F5D87303EB01139B681C0AA1
:100CA000147300F5D87303EB01139B681C0C547389
:100CB00000F5D87303EB01139B681B0E937300F5CB
:100CC000D87303EB0113DB68D37300F5D87303EB20
:100CD0000113DB681C0A147400F5D87303EB0113CD
:100CE000DB681C0C547400F5D87303EB0113DB684C
:100CF0001B0E937421B9C36843F02003C36003E063
:100D0000036943F02003036110BDF0B585B00746C9
:100D10000C4615461E460CB9009500E001958DF86D
:100D2000084000208DF8090008208DF80A000020F6
:100D300005E0325C0DF10B010A54411CC8B20828D1
:100D4000F7DB6946384600F002F805B0F0BD10B593
:100D500002460020936803F08063B3F1806F00D1F6
:100D600010E0936803F00063B3F1006F01D101203C
:100D700008E0936803F08053B3F1805F01D1022053
:100D800000E00420042874D002F5C07303EB0013C4
:100D90001B6803F0010402F5C07303EB00131C6031
:100DA0000B7A7BB94B7A0C8843EA445302F5C07442
:100DB00004EB00142468234302F5C07404EB001410
:100DC000236010E00B7A4C6843EAC4034C7A234357
:100DD00002F5C07404EB00142468234302F5C074C8
:100DE00004EB001423608B7A03F00F038B7202F57F
:100DF000C07303EB00135B6823F00F0402F5C073AC
:100E000003EB00135C6002F5C07303EB00135B6837
:100E10008C7A234302F5C07404EB001463608B7B6F
:100E20001C064B7B44EA03440B7B44EA0323CC7A45
:100E3000234302F5C07404EB0014A3608B7C1C06F2
:100E40004B7C44EA03440B7C44EA0323CC7B2343DE
:100E500002F5C07404EB0014E36002F5C07303EB09
:100E600000131B6843F0010402F5C07303EB001389
:100E70001C6010BD10B59FED160A164880ED030AE0
:100E80009FED150A80ED070A0020124981F85400F1
:100E9000012081F85C009FED110A084680ED160ADA
:100EA000002412E004EB04110D4A02EB810101F170
:100EB00010004FF47A72D1009FED0A1ADFED0A0A92
:100EC000B0EE040A00F022FB641C042CEADB10BD27
:100ED0000AD7233D280000200060864500C07345E6
:100EE0008800002000000000CDCC4C3F31B52DED36
:100EF000040B82B00546022D07D100231A4619467D
:100F0000184600F02BFC07B030BD4748807D38B153
:100F10009FED460A8DED040A8DED030A8DED020A60
:100F20004348D0ED030AB0EE600A00F1100102A8B8
:100F300000F06DFA3E48D0ED030AB0EE600A00F111
:100F4000140103A800F063FA3948D0ED030AB0EEAB
:100F5000600A00F1180104A800F059FA3448D0EDF5
:100F6000061AB0EE611AD0ED051AF0EE610AD0ED66
:100F7000041AB0EE610A684600F01AFC002443E04F
:100F800004EB04102B4901EB800090F83C00012891
:100F900039D13DF8140004EB0411264A02EB81011B
:100FA000488104EB041102EB8101B1F9021001EE5A
:100FB000101AB8EEC11AF0EE410A04EB041102EB6C
:100FC0008101B1F90A1001EE101AB8EEC11AB0EEA3
:100FD000410A04EB041102EB810101F1100000F061
:100FE000B9FABDEEC00A10EE100A00B204EB04110B
:100FF000104A02EB8101C881002004EB041102EBCE
:10100000810181F83C00641C042CB9DB094CB4F963
:10101000DA30B4F99620B4F95210B4F90E0000F0A9
:101020009DFB00BF6FE70000AC0100200000000046
:1010300028000020880000200246002002EA010368
:101040000BB1012000E00020704721B1026842F09E
:101050000102026003E0026822F0010202607047B0
:10106000016821F00101016000210160416081609F
:10107000C1600161212141614A49884204D13D2179
:10108000484A103A91608CE046491831884205D1AF
:101090004FF47461434A103A916082E04149303123
:1010A000884205D14FF474113E4A103A916078E0BD
:1010B0003C494831884205D14FF07461394A103AB1
:1010C00091606EE037496031884204D13649354A33
:1010D000103AD16065E033497831884204D1334910
:1010E000304A103AD1605CE02E499031884204D1F8
:1010F0002F492C4A103AD16053E02A49A83188423E
:1011000005D14FF03D51274A103AD16049E02949B5
:10111000884204D13D21274A083A116041E025491F
:101120001831884205D14FF47461224A083A11609F
:1011300037E020493031884205D14FF474111D4AFF
:10114000083A11602DE01B494831884205D14FF023
:101150007461184A083A116023E0164960318842E8
:1011600004D11149134A121F11601AE01149783154
:10117000884204D10D490F4A121F116011E00D4938
:101180009031884204D10A490A4A121F116008E0CE
:101190000849A831884204D14FF03D51054A121F39
:1011A00011607047106002403D000020400F002099
:1011B00000003D2010640240014600200A6802F051
:1011C00001020AB1012000E0002070470146486892
:1011D00080B2704710B500220268134B1A40CC68E9
:1011E0000B6823434C6923438C692343CC69234315
:1011F0000C6A23434C6A23438C6A23434C6B23437E
:101200008C6B23431A430260426922F00702D1E942
:101210000B3423431A4342610B6943604B6883607C
:101220008B68C36010BD00003F801CF041607047B8
:1012300010B5044604B910BD2078617840EA012059
:10124000C0F30A00664908806078C010A17840EABF
:101250004110C0F30A0062494880A0788011E1780B
:1012600040EA8100217940EA8120C0F30A005C490C
:10127000888020794010617940EAC110C0F30A00EB
:101280005749C88060790011800808726079C0F3FE
:1012900001104872A079E17940EA012000B250497A
:1012A0004881207A617A40EA012001B24C4881816C
:1012B000A07AE17A40EA012001B24948C181217B4C
:1012C0000174617B4174A07BE17B40EA01204449C9
:1012D00048820846808A401C888208460088A0F51B
:1012E000806000B2088008464088A0F5806000B2A7
:1012F000488008468088A0F5806000B28880084653
:10130000C088A0F5806000B2C8800846B0F900002F
:10131000142807DC0846B0F9000010F1140F01DBB7
:10132000002008802E48B0F90200142808DC2C4860
:10133000B0F9020010F1140F02DB002028494880A8
:101340002748B0F90400142808DC2548B0F9040047
:1013500010F1140F02DB0020214988802048B0F9E9
:101360000600142808DC1E48B0F9060010F1140F1E
:1013700002DB00201A49C8801948007A1949087010
:101380001748407A48701648B0F9060001EE100A76
:10139000B8EEC11AF0EE410A1148B0F9040001EEAE
:1013A000100AB8EEC11AB0EE410A0F4800F0E2FB95
:1013B0000B48B0F9020001EE100AB8EEC11AF0EEC7
:1013C000410A0748B0F9000001EE100AB8EEC11A50
:1013D000B0EE410A054800F0CDFB00BF2BE700004E
:1013E000AC01002000000020C4010020D801002032
:1013F00010B5044800F002FE1421034800F050FE2E
:1014000010BD0000A0860100980100207047D0EDBB
:10141000000A91ED001A30EEC11AD1ED000A40EE3B
:10142000010AC1ED000A7047F0B50A460021002309
:10143000002400BF3DE0012505FA01F3156805EA27
:1014400003049C4234D105684F000326BE40B543D7
:10145000056015794E00B54006683543056015797D
:10146000012D02D01579022D16D185684F00032673
:10147000BE40B543856055794E00B540866835431A
:101480008560456801268E40B5434560456896797C
:101490008E40B6B235434560C5684F000326BE4056
:1014A000B543C560D5794E00B540C6683543C560C3
:1014B000491C1029BFD3F0BDF0B5002300244D070F
:1014C000ED0E02FA05F3CE1000F1200555F8265076
:1014D0004E07F70E0F26BE40B543CF1000F1200691
:1014E00046F82750CE1000F1200555F8265045EA61
:1014F0000304CE1000F1200545F82640F0BD4183DD
:1015000070470183704700BFFEE70000DFED101A4F
:10151000C0ED001ADFED0E1AC0ED011ADFED0C1A56
:10152000C0ED021ADFED0A1AC0ED031ADFED081A4A
:10153000C0ED041A80ED050AC0ED060A80ED071A19
:1015400041628262DFED021AC0ED081A70470000A6
:101550000000000008B50146F0EE401AB0EE602A27
:10156000C1ED001A81ED012A91ED000AD1ED010AC9
:1015700030EE600A81ED020A91ED020AD1ED030A14
:1015800030EE600AD1ED050A20EE200AF0EE402A86
:1015900091ED060AD1ED020A20EE200A8DED000A37
:1015A00091ED020AD1ED030AB0EE001A01EE600AD5
:1015B000D1ED040A30EE200AD1ED070A20EE200A10
:1015C000B0EE403AD1ED0A0AF8EE600AB0EE600AD9
:1015D000684601F0F8F991ED080ADDED000A72EEB7
:1015E000A00A70EE830A30EE200A81ED080AD1EDE0
:1015F000090AF8EE600AB0EE600A01F1200001F07D
:10160000E2F991ED030A81ED040A91ED020A81ED00
:10161000030A91ED080A08BD10B500F02FF800F09C
:1016200015F8FFF76FF8FFF7E3FE4FF4FA6001F0EB
:10163000E9F9FFF71FFC4FF4165000F077FD42F276
:101640000F71592000F0BCFB10BD00001CB501213A
:10165000022000F0EBF90420009000208DF8040037
:101660008DF806008DF805008DF8070069460248E0
:10167000FFF7DAFE1CBD0000000402401CB501218A
:10168000402000F0D3F94FF4FF70009001208DF856
:10169000040000208DF806008DF8050001208DF86B
:1016A000070069460448FFF7BFFE4FF4FF71024888
:1016B000FFF727FF1CBD0000001802400FB400997F
:1016C000B1F5007F03D90099B1F5017F01D904B0CC
:1016D00070470099A1F201209DF80C109DF80B2095
:1016E00041EA022100EB00121B4B23F822109DF867
:1016F0000E209DF80D1042EA012109B200EB001204
:1017000003EB820251809DF810209DF80F1042EAF1
:10171000012109B200EB001203EB820291809DF8D7
:10172000111000EB001203EB8202917100EB00112B
:101730001A4602EB8101C98F491C00EB001203EB32
:101740008202D187012100EB001203EB820282F8B2
:101750003C1000BFBBE70000880000202DE9FC41E1
:1017600007460C4615461E46380A8DF80000F8B2AA
:101770008DF80100200A8DF80200E0B28DF8030018
:10178000280A8DF80400E8B28DF80500300A8DF8BB
:101790000600F0B28DF807006B464FF4007200218E
:1017A0000248FFF7B2FABDE8FC8100000064004087
:1017B0000FB50146DFED6F2AB0EE622AF7EE002A80
:1017C000F0EE621A00BFDFED6C2AB4EEE20AF1EE31
:1017D00010FA04D8DFED682AB0EE620A0AE0DFED05
:1017E000672AB4EEE20AF1EE10FA03DBDFED632ABA
:1017F000B0EE620A00BF00BFDFED5F2AF4EEE20A3E
:10180000F1EE10FA04D8DFED5C2AF0EE620A0AE08D
:10181000DFED5A2AF4EEE20AF1EE10FA03DBDFED17
:10182000572AF0EE620A00BF00BFDFED532AB4EE84
:10183000E21AF1EE10FA04D8DFED4F2AB0EE621A88
:101840000AE0DFED4E2AB4EEE21AF1EE10FA03DB05
:10185000DFED4A2AB0EE621A00BF70EE602A72EE27
:10186000812ACDED002A70EE202A72EE812ACDED7C
:10187000012AF1EE402A72EEA02A72EE812ACDED05
:10188000022AF1EE402A72EEE02A72EE812ACDEDB4
:10189000032A002036E06A4602EB8002D2ED002ADD
:1018A000F5EEC02AF1EE10FA05DD6A4602EB800281
:1018B000D2ED002A06E06A4602EB8002D2ED002A51
:1018C000F1EE622AF4EEC22AF1EE10FA18DD6A4651
:1018D00002EB8002D2ED002AF5EEC02AF1EE10FAFA
:1018E00005DD6A4602EB8002D2ED002A06E06A4678
:1018F00002EB8002D2ED002AF1EE622AB0EE622AFB
:10190000421CD0B20428C6DBDFED1C2AB4EEE22A6A
:10191000F1EE10FA05DDDFED192A82EE823AF0EEE3
:10192000431ADDED002A62EEA12AFDEEE22A12EE54
:10193000900A00B20880DDED012A62EEA12AFDEED8
:10194000E22A12EE900A00B24880DDED022A62EE31
:10195000A12AFDEEE22A12EE900A00B28880DDEDA7
:10196000032A62EEA12AFDEEE22A12EE900A00B2EC
:10197000C8800FBD000000000040CEC50040CE452D
:1019800000BFFEE77047F8B506460C461546F0B2B4
:101990008DF80000E0B28DF80100E8B28DF8020089
:1019A00001208DF80300684600F002F8F8BD000041
:1019B00070B5002100230F22C4781CB3174C246893
:1019C00004F4E064C4F5E064C4F30721C1F1040445
:1019D000E3B20A4144789C40E1B284781440214348
:1019E0000C07210E0E4C05786155047804F01F0594
:1019F0000124AC4005786D11AD0005F1E025C5F876
:101A0000004109E0047804F01F050124AC40054DB5
:101A10000678761145F8264070BD00000CED00E018
:101A200000E400E080E100E07047000029B1064AD0
:101A300012680243044B1A6004E0034A12688243AE
:101A4000014B1A60704700003038024029B1064A45
:101A500012680243044B1A6004E0034A126882438E
:101A6000014B1A60704700004038024029B1064A15
:101A700012680243044B1A6004E0034A126882436E
:101A8000014B1A607047000044380240F0B5002155
:101A900000220024022500260223324F3F6807F06F
:101AA0000C0121B1042905D0082937D105E02E4FBA
:101AB000076036E02D4F076033E02A4F3F1F3F6835
:101AC000C7F38056274F3F1F3F6807F03F036EB1B3
:101AD000264FB7FBF3F7DFF88CC0ACF1040CDCF851
:101AE00000C0CCF3881C07FB0CF40CE01E4FB7FBC6
:101AF000F3F7DFF870C0ACF1040CDCF800C0CCF3F5
:101B0000881C07FB0CF4174F3F1F3F68C7F30147C2
:101B10007F1C7D00B4FBF5F7076002E0124F076001
:101B200000BF00BF0F4F3F6807F0F0010909104FD9
:101B30007A5C0768D74047600A4F3F6807F4E05176
:101B4000890A0B4F7A5C4768D7408760054F3F682A
:101B500007F46041490B064F7A5C4768D740C7607D
:101B6000F0BD0000083802400024F400001BB7005C
:101B70000200002010B52DED088BB0EE408AF0EE8B
:101B8000608A044684ED008AC4ED018A94ED000A5F
:101B900010EE101A0846FEF725FB41EC1A0B94EDE7
:101BA000010A10EE101A0846FEF71CFB41EC1B0B55
:101BB000B0EE4A1AF0EE6A1AB0EE4B0AF0EE6B0A7B
:101BC00000F05AFDB0EE409AF0EE609A51EC190B1D
:101BD000FEF71BFBA060BDEC088B10BD704700003A
:101BE0000CB50020019000904148006840F480301E
:101BF0003F49086000BF3E48006800F40030009094
:101C00000198401C0190009818B90198B0F5A04FB8
:101C1000F1D13748006800F4003010B10120009085
:101C200001E0002000900098012860D13048403049
:101C3000006840F080502E49403108602D4800680F
:101C400040F440402B490860294808300068284982
:101C5000083108600846006840F400400860084603
:101C6000006840F4A05008602348091F0860081F5E
:101C7000006840F08070091F086000BF1C480068C1
:101C800000F000700028F9D01A48006840F4803055
:101C90001849086000BF1748406800F480300028E9
:101CA000F9D01448006840F400301249086000BFC1
:101CB0001048406800F400300028F9D040F2057068
:101CC0000E4908600A480830006820F003000849FF
:101CD000083108600846006840F00200086000BF54
:101CE00003480830006800F00C000828F8D10CBD4B
:101CF00000380240007000400C5A4007003C02408F
:101D000030B50146481EB0F1807F01D3012030BDBF
:101D1000481E4FF0E022506150170F22002807DACA
:101D200013071D0E094B00F00F04241F1D5503E07F
:101D300013071C0E064B1C5400BF00204FF0E0227E
:101D40009061072010610020E1E7000018ED00E03D
:101D500000E400E07047000010B51548006840F44A
:101D60007000134908601348006840F001001149F1
:101D7000086000200F49083108600E4800680E49CD
:101D800008400C4908600D48091D0860081F0068DC
:101D900020F48020091F0860002006490C310860EB
:101DA000FFF71EFF4FF0006001498039086010BD49
:101DB00088ED00E000380240FFFFF6FE10300024FE
:101DC0003EB505460C4601211020FFF73FFEADF859
:101DD000005001940020ADF80800ADF802006946FB
:101DE0000A4800F0A1F80121084800F067F8012135
:101DF000064800F072F801221146044800F08AF803
:101E0000002201213620FFF7BEFD3EBD001000403C
:101E100010B52DED048B0121234800F06AF8E8B3DA
:101E20009FED220AB0EE408A9FED200AF0EE408A34
:101E30009FED1E0AB0EE409A1D48007801281CD084
:101E400003281BD11B4890ED000AF2EE040A20EE95
:101E5000200AB0EE408A90ED010AF2EE040A20EE6C
:101E6000200AF0EE408A144890ED000AF2EE000AD3
:101E700020EE200AB0EE409A00E000BF00BF0C49FF
:101E80000878B0EE491AF0EE680AB0EE480AFFF79B
:101E90002DF80121044800F01DF800E000E000BF2B
:101EA000BDEC048B10BD00000010004000000000DD
:101EB00000000020C4010020D801002021B10288C8
:101EC00042F08002028004E002884FF67F731A40DD
:101ED00002807047CA430282704721B1028842F0F3
:101EE0000102028004E002884FF6FE731A4002806D
:101EF000704730B50246002000230024158A05EA09
:101F00000103958905EA010413B10CB1012000E039
:101F1000002030BD1AB183890B43838102E083899D
:101F20008B4383817047000000220288184B98423F
:101F30000ED0184B98420BD0B0F1804F08D0164B02
:101F4000984205D0154B984202D0154B984204D1C7
:101F50004FF68F731A404B881A43124B984207D0A2
:101F6000114B984204D04FF6FF431A400B891A4395
:101F700002804B68C3620B880385054B984202D0F0
:101F8000044B984201D18B7A0386012383827047E8
:101F9000000001400004014000040040000800402F
:101FA000000C00400010004000140040704700008A
:101FB00010B540F224410E4800F01FF9B8B10021DD
:101FC0000C48FFF742F80B48FFF700F9022802D14E
:101FD0000948FFF72DF914210648FFF727F90121D9
:101FE0000448FFF732F8024880880148008810BD95
:101FF00000100140406402409801002010B586B0F6
:10200000044601210220FFF711FD01211020FFF7F6
:102010002DFD00208DF8160001208DF817000220FC
:102020008DF815008DF814004020049004A91A487A
:10203000FFF7FAF98020049004A91748FFF7F4F994
:10204000072206211448FFF737FA072211461248E3
:10205000FFF732FA00940020ADF80400ADF8060056
:10206000ADF80800ADF80C000C20ADF80A00694688
:102070000A4800F011F9022200212520FFF783FC15
:10208000012240F22441054800F0E1F80121034813
:1020900000F09EF806B010BD0004024000100140A0
:1020A00030B58FB004460D4601218805FFF7BEFC10
:1020B0001C48FEF7D5FF00BF1A48FFF77DF800283F
:1020C000FAD14FF000600090174801900294002070
:1020D0000390049505904FF48060069000200790CF
:1020E00008904FF48070099000020A9000200B9035
:1020F0000C900D900E9069460A48FFF76BF801218D
:102100000848FEF7A2FF00BF0648FFF755F8012870
:10211000FAD1012240210448001F00F065F80FB0F9
:1021200030BD0000406402400410014010B586B08C
:10213000044601210820FFF779FC01214804FFF73C
:1021400085FC00208DF8160001208DF81700022074
:102150008DF815008DF814002020049004A91A4869
:10216000FFF762F94020049004A91748FFF75CF9D3
:10217000072205211448FFF79FF90722062112487C
:10218000FFF79AF900940020ADF80400ADF80600BE
:10219000ADF80800ADF80C000C20ADF80A00694657
:1021A0000A4800F079F8032200212620FFF7EBFB14
:1021B000012240F22441054800F049F8012103487A
:1021C00000F006F806B010BD000C024000440040CC
:1021D00021B1828942F40052828104E082894DF665
:1021E000FF731A40828170471AB1838A0B4383823E
:1021F00002E0838A8B438382704770B502460024D5
:1022000000230025002040F66A16B14200D100BF2D
:10221000C1F3421501F01F03012606FA03F3012D55
:1022200002D19689334006E0022D02D1168A33404E
:1022300001E0968A33400C12012606FA04F416884F
:10224000344013B10CB1012000E0002070BDF0B5A6
:102250000346002400260025002040F66A17B942F4
:1022600000D100BF1846C1F3421401F01F06012738
:1022700007FA06F5012C01D10C3004E0022C01D143
:10228000103000E014301AB107682F43076002E0F5
:102290000768AF430760F0BD2DE9FF4705460E46CE
:1022A0000024A14600BFA046B08900B100BF2C8A1F
:1022B00024F44054F08804432C82AC8941F20C6031
:1022C0008443B08831890843718908430443AC8151
:1022D000AC8A24F44074B0890443AC826846FFF7AA
:1022E000D5FB2048854202D01F48854202D1DDF847
:1022F0000C9001E0DDF80890A88900F4004040B19E
:1023000009EBC90000EB091031684900B0FBF1F797
:1023100007E009EBC90000EB091031688900B0FB48
:10232000F1F76420B7FBF0F004012009642101FB00
:102330001078A88900F4004040B1322000EBC800BA
:10234000B0FBF1F000F00700044308E0322000EB9E
:1023500008106421B0FBF1F000F00F0004432C8161
:10236000BDE8FF87001001400014014000BFFEE7F8
:1023700003B401984100009850EAC12018BF04201E
:102380004A0D18BF40F0010040F2FF72B2EB515FFE
:1023900008BF40F00200012808BF052002B07047C6
:1023A00070B59B482DED020B2DED068B079D25F09A
:1023B0000044A04218DC9748844202DC0AD1069807
:1023C00040B19DED060BBDEC068B02B0BDE8704040
:1023D00000F0C6BA002DCCBF9FED8F0B9FED900B88
:1023E000BDEC068B02B070BD8F48A04215DD8F4852
:1023F000A042D8BF4FF0FF3458DD9DED060B51ECE5
:10240000100BFFF7B5FF042808BF00F0BDFA9DEDE3
:10241000060BBDEC068B02B070BD9DED060B51ECBA
:10242000100B00F013FBCDE9060181489FED828B74
:10243000A0423CDD8248A0421FDD00249FED82AB1C
:102440009DED060B53EC1A2B51EC100BFDF730FFF2
:102450009DED060B41EC190B53EC1A2B51EC100BB4
:10246000FEF7CCF853EC182BFDF7C3FF53EC192BF8
:10247000FDF7C5FFCDE9060149E09DED060B0124FE
:1024800053EC182B51EC100BFDF712FF9DED060BD2
:1024900041EC190B53EC182B51EC100BFDF7A9FF75
:1024A00053EC192BFDF7ABFFCDE906012FE068488F
:1024B000A0421FDD02249FED689B9DED060B53ECAF
:1024C000192B51EC100BFEF799F853EC182BFDF774
:1024D000EFFE9DED060B41EC180B53EC192B51EC64
:1024E000100BFDF786FF53EC182BFDF788FFCDE9A5
:1024F00006010CE09DED060B032453EC102B9FED21
:10250000580B51EC100BFDF77AFFCDE906019DED5C
:10251000060B53EC102B51EC100BFEF76FF841EC4F
:10252000180B53EC182BFEF769F841EC190B4E48C9
:102530000621B0EE490AF0EE690A784400F094F9F9
:1025400053EC182B51EC100BFEF758F841EC180B1C
:102550004648B0EE490AF0EE690A0521784400F0D9
:1025600083F953EC192B51EC100BFEF747F841ECB3
:10257000100B51EC180B53EC102B002C0EDAFDF75E
:1025800097FE9DED061B53EC112BFEF737F89DEDE2
:10259000061B53EC112BFDF72FFF35E0FDF788FEEE
:1025A0009DED061B53EC112BFEF728F841EC100BA8
:1025B0002F48784400EBC40090ED001B51EC100B49
:1025C00053EC112BFDF715FF9DED061B53EC112B62
:1025D000FDF70FFF41EC100B2648784400EBC400D8
:1025E00090ED001B51EC100B53EC112BFDF704FF89
:1025F00041EC100B002DA2BFBDEC068B02B070BDEC
:1026000051EC100B81F0004141EC100B01E7000090
:10261000000010440000F07F182D4454FB21F93FC6
:10262000182D4454FB21F9BF0000DC3F0000203E80
:102630000000F33F00000000000000000000F03F39
:102640000000E63F00000000000000000000004025
:102650000080034000000000000000000000F83F80
:10266000000000000000F0BFC20500007805000077
:1026700002050000BA04000070B56B4E2DED040B8E
:102680002DED028B82B0DDF81CC0DDE905235C4234
:102690002CF000411C4341EAD474049D22F0004018
:1026A000B44205D86C422C4340EAD474B4420BD9EE
:1026B0009DED061B9DED040B02B0BDEC028B04B03A
:1026C000BDE8704000F056B9ACF14054A4F17F640D
:1026D0001C430BD0022404EAAC7444EAD2740543D0
:1026E0009FED538B9FED542B07D015E09DED040B10
:1026F00051EC100B00F07EF942E0002C11BF012CD0
:102700009DED040B02B0BDEC028B04BF04B070BDA4
:10271000022C38D0032C3BD00B439FED491B9FED7F
:102720004A0B0AD0B14218D1B04209D121F0804100
:1027300020F08040079105900FE0002A15DA10E0A4
:10274000434B7B44002C08BF93ED000B0DD0012CB4
:1027500010D0022C17D0032C1AD0B0421DD1002A61
:1027600003DAB0EE410AF0EE610A02B0BDEC028B72
:1027700004B070BD93ED000B51EC100B81F00041E3
:1027800041EC100BF1E7B0EE480AF0EE680AECE716
:10279000B0EE420AF0EE620AE7E7401A00153C2864
:1027A000C8BF8DED000B19DCBCF1000FBEBF10F1EE
:1027B0003C0F9FED290B8DED000B0FDB9DED060B04
:1027C00053EC102B9DED040B51EC100BFDF717FE95
:1027D00000F03CF900F00EF9CDE90001002C08BF33
:1027E0009DED000BC1D0012C10D0022C9FED1C0BD5
:1027F00053EC102B9DED000B51EC100B0DD0FDF7A1
:10280000F8FD53EC182BFDF7F4FDB9E7019880F0C3
:10281000004001909DED000BA7E7FDF7EAFD53ECAA
:10282000182BFDF7E9FDABE70000F07F000000008A
:10283000182D4454FB210940182D4454FB2109C094
:10284000182D4454FB21F9BF182D4454FB21F93FA6
:10285000EA0300000000000000000000000000008B
:10286000075C143326A6A13C70B504462DED028BFF
:102870004D1E00EBC500B0EE408AF0EE608A90ED90
:10288000000B35F0060017D053EC182B51EC100B51
:10289000FDF7B4FE41EC100B6D1E04EBC50090ED8E
:1028A000001B51EC100B53EC112BFDF701FD41EC1B
:1028B000100B35F00600E7D1022D36D0042D1CD0C8
:1028C000062D1CBFBDEC028B70BD53EC182B51ECD8
:1028D000100BFDF793FE94ED0A1B53EC112BFDF743
:1028E000E7FC53EC182BFDF789FE94ED081B53EC25
:1028F000112BFDF7DDFC41EC100B53EC182B51ECC8
:10290000100BFDF77BFE94ED061B53EC112BFDF72E
:10291000CFFC53EC182BFDF771FE94ED040B53EC38
:10292000102BFDF7C5FC41EC100B53EC182B51ECB0
:10293000100BFDF763FE94ED021B53EC112BFDF71A
:10294000B7FC53EC182BFDF759FE94ED001B53EC2C
:10295000112BFDF7ADFCBDEC028B41EC100B70BDF3
:1029600010B553EC102B51EC100BFDF7A1FC41EC12
:10297000100B10BD10B553EC112B51EC100BFDF7E3
:1029800097FC41EC100B10BD9FED050B10B553ECFF
:10299000102B51EC100BFDF731FE41EC100B10BD6C
:1029A000000000000000001002E008C8121F08C16B
:1029B000002AFAD170477047002001E001C1121FC0
:1029C000002AFBD17047D0ED000AF4EEC00AF1EE08
:1029D00010FA01DD80ED000AD0ED000AB1EE401AD8
:1029E000F4EEC10AF1EE10FA03D2F1EE400AC0EDA6
:1029F000000A704710B541EC100BFFF7D1FC51EC09
:102A0000100B10BD70B504460F4800684FF47A7182
:102A1000B0FBF1F52846FFF773F9002008E000BF8E
:102A20004FF0E021096901F480310029F8D0401C01
:102A3000A042F4D34FF0E020006920F001004FF0F5
:102A4000E021086170BD00001400002082B0CDE9D3
:102A5000000121F0004001909DED000B02B051EC0F
:102A6000100B7047FEF7D8FD12E0FFF79FFA4FF406
:102A7000FF710848FEF745FD4FF4FA70FFF7C2FFFB
:102A80004FF4FF710348FEF73AFDC820FFF7BAFF85
:102A9000EBE70000001802404FBB610567ACDD3F6B
:102AA000182D4454FB21E93F9BF681D20B73EF3F75
:102AB000182D4454FB21F93FE2652F227F2B7A3CED
:102AC000075C143326A6813CBDCBF07A8807703CA6
:102AD000075C143326A6913CC4EB98999999C9BF19
:102AE000711623FEC671BCBF6D9A74AFF2B0B3BF4E
:102AF0009AFDDE522DDEADBF2F6C6A2C44B4A2BF0E
:102B00000D5555555555D53FFF8300922449C23F79
:102B10006E204CC5CD45B73F513DD0A0660DB13FAD
:102B2000EB0D76244B7BA93F11DA22E33AAD903FBF
:102B30000000000000000000582B000800000020EA
:102B400028000000A8290008802B00082800002089
:102B5000D8050000B82900080000000000000102AC
:102B60000304010203040607080900000095BA0ADD
:102B7000000000000000000001020304060708092D
:04000005080001C12D
:00000001FF
