:020000040800F2
:1000000008040020450100084D0100084F010008C8
:1000100051010008530100085501000800000000CC
:100020000000000000000000000000005701000870
:1000300059010008000000005B0100085D01000894
:100040005F0100085F0100085F0100085F01000810
:100050005F0100085F0100085F0100085F01000800
:100060005F0100085F0100085F0100085F010008F0
:100070005F0100085F0100085F0100085F010008E0
:100080005F0100085F0100085F0100085F010008D0
:100090005F0100085F0100085F0100085F010008C0
:1000A0005F0100085F0100085F0100085F010008B0
:1000B00031080008490800087D0800085F010008B1
:1000C0005F0100085F0100085F0100085F01000890
:1000D0005F0100085F0100085F0100085F01000880
:1000E0005F0100085F0100085F0100085F01000870
:1000F0005F0100085F0100085F0100085F01000860
:100100005F0100085F0100085F0100085F0100084F
:100110005F0100085F0100085F0100085F0100083F
:100120005F0100085F0100085F0100085F0100082F
:10013000DFF80CD000F018F800480047110C000858
:10014000080400200648804706480047FEE7FEE70F
:10015000FEE7FEE7FEE7FEE7FEE7FEE7FEE7FEE777
:100160009105000831010008064C074D06E0E068E3
:1001700040F0010394E8070098471034AC42F6D3EE
:10018000FFF7DAFF340C0008540C000800B587B004
:100190000121084600F068F90121042000F074F9FB
:1001A0000320ADF8000004208DF8030069461E48C6
:1001B00000F03CF804A800F00DFD0020ADF81000A0
:1001C0004FF6FF70ADF814000020ADF81600ADF842
:1001D000120004A94FF0804000F0AAFC00231A4648
:1001E00003214FF0804000F082FB01A800F008FCE2
:1001F0000A20ADF80C0001A9400700F0ABFB01217B
:10020000880700F053FB01221146900700F001FC23
:1002100000214FF0804000F05CFC0121880700F0D5
:100220004BFB07B000BD0000000801402DE9F04184
:10023000024600250026002000230024002791F814
:1002400003C00CF00F0591F803C00CF0100CBCF1CA
:10025000000F03D091F802C04CEA050591F800C0E8
:10026000BCF1000F31D0146800202BE04FF0010CDE
:100270000CFA00F3B1F800C00CEA03069E4220D14C
:1002800083004FF00F0C0CFA03F7BC4305FA03FC94
:100290004CEA040491F803C0BCF1280F06D14FF0DA
:1002A000010C0CFA00FCC2F814C00AE091F803C07B
:1002B000BCF1480F05D14FF0010C0CFA00FCC2F85C
:1002C00010C0401C0828D1D31460B1F800C0BCF1A4
:1002D000FF0F34DD546800202EE000F1080C4FF0D1
:1002E000010808FA0CF3B1F800C00CEA03069E42BC
:1002F00021D183004FF00F0C0CFA03F7BC4305FA31
:1003000003FC4CEA040491F803C0BCF1280F05D1AA
:1003100000F1080C08FA0CF8C2F8148091F803C038
:10032000BCF1480F07D100F1080C4FF0010808FAA2
:100330000CF8C2F81080401C0828CED35460BDE8E9
:10034000F0814161704701617047000010B54FF4C2
:1003500000610448FFF7F7FF4FF480510148FFF7B1
:10036000F0FF10BD000C014008B50121082000F08D
:100370008BF84FF4C050ADF8000010208DF803004A
:1003800003208DF8020069460448FFF74FFF4FF441
:10039000C0510248FFF7D7FF08BD0000000C014024
:1003A00008B50121C80200F06FF801210D2000F00E
:1003B0006BF84FF48070ADF8000018208DF8030042
:1003C00003208DF8020069460548FFF72FFF4FF420
:1003D0000050ADF8000069460248FFF727FF08BD4E
:1003E00000080140000C014000B587B040F60F60E6
:1003F000ADF814000120ADF810000020ADF8160093
:10040000ADF812008DF8180004A9164800F090FB12
:100410007020ADF800000120ADF802000420ADF816
:10042000040040F20770ADF806000020ADF80800A7
:10043000ADF80C00ADF80E0069460A4800F0F2FA7B
:100440000821084800F03AFB0121064800F022FA92
:100450000121044800F030FA0121024800F038FA86
:1004600007B000BD002C014029B1064AD269024301
:10047000044BDA6104E0034AD2698243014BDA613A
:10048000704700000010024029B1064A92690243F9
:10049000044B9A6104E0034A92698243014B9A61DA
:1004A000704700000010024010B500F001F810BDC8
:1004B0000CB50020019000903348006840F4803073
:1004C0003149086000BF3048006800F400300090F7
:1004D0000198401C0190009818B90198B0F5A06FE0
:1004E000F1D12948006800F4003010B101200090DB
:1004F00001E0002000900098012843D123480068C3
:1005000040F01000214908600846006820F0030010
:1005100008600846006840F0020008601A48406819
:10052000194948600846406848600846406840F4F9
:10053000806048600846406820F47C1048600846A7
:10054000406840F4E81048600846006840F0807059
:10055000086000BF0C48006800F000700028F9D067
:100560000948406820F00300074948600846406891
:1005700040F00200486000BF0348406800F00C00F3
:100580000828F9D10CBD00000010024000200240F4
:1005900010B51348006840F0010011490860084692
:1005A0004068104908400E494860084600680E49F6
:1005B00008400B4908600846006820F48020086065
:1005C0000846406820F4FE0048604FF41F00886031
:1005D000FFF76AFF4FF000600449086010BD00009B
:1005E000001002400000FFF8FFFFF6FE08ED00E0FB
:1005F000F0B50C46154600220021068C4FF6FE771A
:100600003E400684028B018C4FF60C7632407E1CF5
:1006100006EA03162E433243104EB0420ED0104E5F
:10062000B0420BD0B0F1804F08D00E4EB04205D092
:100630000D4EB04202D00D4EB04206D14FF6FD76BF
:10064000314044F00106314305E04FF6F576314084
:1006500044F00106314302830184F0BD002C0140C7
:10066000003401400004004000080040000C00403D
:10067000F0B50C461546002200210026078C4FF6E7
:10068000EF7C07EA0C070784028B018C4FF6FF779B
:1006900007EA041640F6FF473A404FF6FF7707EAAD
:1006A00003373A434FF6FF7707EA05273A43114FDE
:1006B000B8420ED0104FB8420BD0B0F1804F08D0E6
:1006C0000E4FB84205D00E4FB84202D00D4FB8427F
:1006D00006D14FF6DF77394046F01007394305E081
:1006E0004FF65F77394044F01007394302830184A5
:1006F000F0BD0000002C0140003401400004004027
:1007000000080040000C0040F0B50C4615460022E1
:1007100000210026078C4FF6FF6C07EA0C070784C0
:10072000828B018C4FF6FF7707EA04264FF60C7791
:100730003A404FF6FF7707EA03172F433A43114F2A
:10074000B8420ED0104FB8420BD0B0F1804F08D055
:100750000E4FB84205D00E4FB84202D00D4FB842EE
:1007600006D14FF6FF57394046F48077394305E00C
:100770004FF2FF57394044F4807739438283018434
:10078000F0BD0000002C0140003401400004004096
:1007900000080040000C0040F0B50C461546002251
:1007A00000210026078C4EF6FF7C07EA0C07078421
:1007B000828B018C4FF6FF7707EA043640F6FF473D
:1007C0003A404FF6FF7707EA05273A434FF6FF779F
:1007D00007EA03373A43114FB8420ED0104FB842E0
:1007E0000BD0B0F1804F08D00E4FB84205D00E4F5D
:1007F000B84202D00D4FB84206D14DF6FF773940CE
:1008000046F48057394305E047F6FF57394044F432
:100810008057394382830184F0BD0000002C0140E1
:10082000003401400004004000080040000C00407B
:100830004FF08040008A4FF08040008A20F0010095
:100840004FF080410882704710B50121094800F03F
:100850006FF848B14FF08040808C00B206490860C4
:1008600000204FF0804188840121024800F021F8E7
:1008700010BD000000040040000000200448008873
:100880000348008820F001000149088070470000FB
:100890001008004021B1028842F08002028004E08A
:1008A00002884FF67F731A4002807047CA43028263
:1008B0007047CA430282704721B1028842F00102A8
:1008C000028004E002884FF6FE731A4002807047EF
:1008D00031B1B0F8442042F40042A0F8442005E0D1
:1008E000B0F84420C2F30E02A0F844207047F0B5DF
:1008F0000C4615461E460021002200230189028B6A
:10090000038C4FF6F877394021434FF6FC473A40C5
:1009100040F201173A434FF6DD773B404FF6FF7741
:1009200007EA06172F433B43018102830384F0BD8E
:1009300030B50246002000230024158A05EA010391
:10094000958905EA010413B10CB1012000E00020F3
:1009500030BD000070B505460C46244885420ED0D7
:10096000234885420BD0B5F1804F08D021488542FD
:1009700005D02148854202D02048854200D100E0C0
:1009800000BF208850B92389A28861882846FFF7D4
:100990002FFEE188284600F09EF825E020880428F4
:1009A0000AD12389A28861882846FFF761FEE18881
:1009B000284600F099F817E0208808280AD12389F2
:1009C000A28861882846FFF79FFEE188284600F04C
:1009D00098F809E02389A28861882846FFF7DCFEA1
:1009E000E188284600F096F870BD0000002C014018
:1009F000003401400004004000080040000C0040AA
:100A0000002101804180012181800021C18001817C
:100A100070471AB183890B43838102E083898B433A
:100A20008381704770B5002400220023058C4FF6A7
:100A3000FE7635400584028C8388048B4FF68F75D3
:100A40002C40B51E2C400D882C43751E2A400D8964
:100A50002A434D882A43144DA8420BD0134DA84277
:100A600008D0134DA84205D0124DA84202D0124D15
:100A7000A84213D14FF6F7752A404D892A434FF605
:100A8000FB752A408D882A434FF6FF652B404FF6B1
:100A9000FF552B408D892B43CD892B4383800483C5
:100AA000CD888586028470BD002C01400034014051
:100AB0000040014000440140004801400A46002136
:100AC000018B4FF6F77319401143018370478186FC
:100AD000704781847047028B4FF6F3731A4002838C
:100AE000028B0A4302837047028B4FF2FF331A4096
:100AF0000283028B4FF6FF7303EA01231A4302833A
:100B00007047828B4FF6F3731A408283828B0A43BD
:100B100082837047828B4FF2FF331A408283828B2D
:100B20004FF6FF7303EA01231A43828370470000E4
:100B3000002202881D4B98420ED01D4B98420BD0CC
:100B4000B0F1804F08D01B4B984205D01A4B984209
:100B500002D01A4B984204D14FF68F731A404B883B
:100B60001A43174B984207D0164B984204D04FF6C1
:100B7000FF431A40CB881A4302808B8883850B88F9
:100B800003850A4B98420BD0094B984208D00E4B74
:100B9000984205D00D4B984202D00D4B984201D19E
:100BA0000B7A03860123838270470000002C0140EA
:100BB000003401400004004000080040000C0040E8
:100BC000001000400014004000400140004401407B
:100BD000004801404FF6FF71818000210180C180F3
:100BE00041800172704710B5FFF7DAFBFFF7FCFB9D
:100BF00010BD02E008C8121F08C1002AFAD17047D0
:100C00007047002001E001C1121F002AFBD170478C
:100C1000FFF7BCFAFFF7E7FFFFF7A6FBFFF796FB2E
:100C200004E04FF47A710248FFF751FFF9E7000042
:100C3000002C0140540C00080000002008000000B7
:100C4000F20B00085C0C0008080000200004000003
:0C0C5000020C0008000000000000000082
:0400000508000131BD
:00000001FF
