:020000040800F2
:1000000018050020450100084D0100084F010008B7
:1000100051010008530100085501000800000000CC
:100020000000000000000000000000005701000870
:1000300059010008000000005B0100085D01000894
:100040005F0100085F0100085F0100085F01000810
:100050005F0100085F0100085F0100085F01000800
:100060005F0100085F0100085F0100085F010008F0
:100070005F0100085F0100085F0100085F010008E0
:100080005F0100085F0100085F0100085F010008D0
:100090005F0100085F0100085F0100085F010008C0
:1000A0005F0100085F0100085F0100085F010008B0
:1000B000010E0008190E0008B90E00085F010008C3
:1000C0005F0100085F0100085F0100085F01000890
:1000D0005F010008311200085F0100085F0100089D
:1000E0005F0100085F0100085F0100085F01000870
:1000F0005F0100085F0100085F0100085F01000860
:100100005F0100085F0100085F0100085F0100084F
:100110005F0100085F0100085F0100085F0100083F
:100120005F0100085F0100085F0100085F0100082F
:10013000DFF80CD000F006FA004800471517000859
:10014000180500200648804706480047FEE7FEE7FE
:10015000FEE7FEE7FEE7FEE7FEE7FEE7FEE7FEE777
:10016000610B0008310100082DE9FE4F804681EA4D
:100170000300C00F0C46009021F0004123F0004521
:10018000B8EB0200A94105D24046214690461C46E4
:100190000B46024623F00040104347D0270DC7F31B
:1001A0000A00C3F30A510290401A019040286BDA0A
:1001B000C3F3130040F4801B0098924620B1002343
:1001C000D2EB030A63EB0B0B01985946C0F14002D6
:1001D000504600F028F906460D4650465946019A09
:1001E00000F040F910EB08006141002487EA115249
:1001F00084EAE7731A4340D0009A62B3019A012A55
:100200004FEA075215DC001B61EB02014FF0004280
:1002100002EA0752CDE90042001C41F58011324646
:100220002B4600F040F903B0BDE8F08F4046214670
:10023000F9E7001B61EB0201001C41F58013001877
:100240005B412018A2F5001747EB030140EAD57087
:10025000B6196D4111E06D084FEA360645EAC075E2
:100260004FEA0752001B61EB0201001C41F58011AF
:1002700049084FEA30000019514132462B4603B07D
:10028000BDE8F04F00F000B90098012240000023C3
:10029000D0EB020263EBE073009821464FEAE07472
:1002A000B8EB000061EB0401E9E783F000435BE792
:1002B00081F0004158E72DE9FE4F81EA030404F084
:1002C000004421F0004100944FF0000B23F0004364
:1002D00050EA01045ED052EA03045BD0C3F30A542F
:1002E000C1F30A552C44A4F2F3340194A0FB025448
:1002F000C1F3130141F48011C3F3130343F48013DA
:1003000001FB024400FB034E840A970A44EA81542D
:1003100047EA8357A4FB076802958D0A05FB07850A
:100320004FEA932C04FB0C542705029D4FEA065814
:1003300047EA1637B5EB08056EEB070C870E920EF1
:1003400047EA811742EA8312A7FB0201B6EB0B01D1
:1003500064EB00042B0D43EA0C335E1844EB1C5095
:10036000DA465146E7FB0201C5F313044FEA0B33AB
:1003700043EA14534FEA0432019C43EA0603A4F112
:100380000C040294009CCDE900B400F08CF803B09A
:10039000BDE8F08F00200146F9E70EB5C10F80EAF5
:1003A000E0700844CA07002140F233438DE80E0094
:1003B0000A460B4600F077F803B000BD70B5C1F3F4
:1003C0000A5201F000450024C1F3130140F2FF334B
:1003D00041F480119A4201DA002070BD40F23343AB
:1003E0009A42A2F2334203DC524200F02BF800E0C2
:1003F00090402C43F1D0404270BD30B50B460146D1
:1004000000202022012409E021FA02F59D4205D3B3
:1004100003FA02F5491B04FA02F52844151EA2F15D
:100420000102F1DC30BD202A04DB203A00FA02F19F
:10043000002070479140C2F1200320FA03F31943D2
:1004400090407047202A04DB203A21FA02F0002174
:10045000704721FA02F3D040C2F1200291400843D4
:1004600019467047202A06DBCB17203A41FA02F0E2
:1004700043EAE07306E041FA02F3D040C2F1200201
:10048000914008431946704710B5141E73F10004DB
:1004900008DA401C41F1000192185B411A4301D176
:1004A00020F0010010BD2DE9F04D92469B4611B1A0
:1004B000B1FA81F202E0B0FA80F220329046FFF702
:1004C000B2FF04460F4640EA0A0041EA0B015346D8
:1004D0005A46084313D0114653EA010019D0C8F117
:1004E00040025046FFF7AEFF05460E4650465946BD
:1004F0004246FFF798FF084305D0012004E020465C
:100500003946BDE8F08D0020054346EAE0762C43ED
:1005100037430A986305E40AA0EB08000022FD0AAD
:1005200044EA47540A3002D500200146E9E70105B4
:1005300010196941DDE9084500196941BDE8F04D30
:10054000A2E70000064C074D06E0E06840F001031A
:1005500094E8070098471034AC42F6D3FFF7ECFD5F
:10056000601700088017000800B587B00121084611
:1005700000F0F8F90121042000F004FA0320ADF89E
:10058000000004208DF8030069461E4800F03CF886
:1005900004A800F03DFE0020ADF810004FF6FF70FB
:1005A000ADF814000020ADF81600ADF8120004A953
:1005B0004FF0804000F0DAFD00231A4603214FF08F
:1005C000804000F0B2FC01A800F038FD0A20ADF830
:1005D0000C0001A9400700F0DBFC0121880700F0B6
:1005E00083FC01221146900700F031FD00214FF0FD
:1005F000804000F08CFD0121880700F07BFC07B0F3
:1006000000BD0000000801402DE9F0410246002530
:100610000026002000230024002791F803C00CF0DE
:100620000F0591F803C00CF0100CBCF1000F03D0C3
:1006300091F802C04CEA050591F800C0BCF1000F2A
:1006400031D0146800202BE04FF0010C0CFA00F3BD
:10065000B1F800C00CEA03069E4220D183004FF09F
:100660000F0C0CFA03F7BC4305FA03FC4CEA040434
:1006700091F803C0BCF1280F06D14FF0010C0CFA21
:1006800000FCC2F814C00AE091F803C0BCF1480FA6
:1006900005D14FF0010C0CFA00FCC2F810C0401C50
:1006A0000828D1D31460B1F800C0BCF1FF0F34DDCD
:1006B000546800202EE000F1080C4FF0010808FA01
:1006C0000CF3B1F800C00CEA03069E4221D183006E
:1006D0004FF00F0C0CFA03F7BC4305FA03FC4CEA8D
:1006E000040491F803C0BCF1280F05D100F1080CF7
:1006F00008FA0CF8C2F8148091F803C0BCF1480F56
:1007000007D100F1080C4FF0010808FA0CF8C2F804
:100710001080401C0828CED35460BDE8F0814161B0
:1007200070470161704700002DE9F04F89B0044621
:10073000284800680068A0EB040926490968486A4F
:10074000FFF72BFE054623480068D0E906733A46BA
:100750002846FFF7B0FDCDE904011E490968086A83
:10076000FFF71BFE07461B480068D0E904532A46E2
:100770003846FFF7A0FDCDE900014846FFF70DFE22
:100780000746884613480168D1E902532A4638468D
:100790004146FFF790FD8246DDE90023FFF785FD26
:1007A000CDE90201DDE90423FFF7DEFCCDE9060116
:1007B000FFF704FE089007480068006A05490968C9
:1007C000486204480068C0F82090089809B0BDE865
:1007D000F08F00002400002010B54FF400610448A1
:1007E000FFF79FFF4FF480510148FFF798FF10BDBE
:1007F000000C014008B50121082000F0C3F84FF4B7
:10080000C050ADF8000010208DF8030003208DF8D3
:10081000020069460448FFF7F7FE4FF4C051024852
:10082000FFF77FFF08BD0000000C014070B50021FC
:1008300000230F22C47804B3154C246804F4E06448
:10084000C4F5E064210AC1F10403CA40447804FA03
:1008500003F184781440214309010E4C0678A15518
:10086000047804F01F050124AC4005786D11AD003B
:1008700005F1E025C5F8004109E0047804F01F0502
:100880000124AC40044D0678761145F8264070BD31
:100890000CED00E000E400E080E100E008B501219B
:1008A000C80200F06FF801210D2000F06BF84FF442
:1008B0008070ADF8000018208DF8030003208DF83B
:1008C000020069460548FFF79FFE4FF40050ADF85F
:1008D000000069460248FFF797FE08BD0008014086
:1008E000000C014000B587B040F60F60ADF8140071
:1008F0000120ADF810000020ADF81600ADF8120090
:100900008DF8180004A9164800F030FC7020ADF8EE
:1009100000000120ADF802000420ADF8040040F210
:100920000770ADF806000020ADF80800ADF80C0027
:10093000ADF80E0069460A4800F092FB082108480D
:1009400000F0DAFB0121064800F0C2FA0121044858
:1009500000F0D0FA0121024800F0D8FA07B000BD3B
:10096000002C014029B1064AD2690243044BDA61E6
:1009700004E0034AD2698243014BDA617047000008
:100980000010024029B1064A92690243044B9A6161
:1009900004E0034A92698243014B9A617047000068
:1009A0000010024030B500210022002400232D4D0C
:1009B0006D6805F00C0121B1042905D0082923D167
:1009C00005E0294D056022E0274D05601FE0254D1B
:1009D0006D6805F47012234D6D6805F480340225AE
:1009E00005EB92421CB9214D554305600BE01D4DAE
:1009F0006D6805F400351DB11C4D5543056002E0DE
:100A0000194D5543056002E0174D056000BF00BF5A
:100A1000144D6D6805F0F0010909154D6B5C056812
:100A2000DD4045600F4D6D6805F4E061090A104D29
:100A30006B5C4568DD4085600A4D6D6805F460516A
:100A4000C90A0B4D6B5C4568DD40C560054D6D689E
:100A500005F44041890B074D6B5CC568B5FBF3F5A8
:100A6000056130BD0010024000127A0000093D000F
:100A7000000000201000002010B500F001F810BDAB
:100A80000CB50020019000903348006840F480309D
:100A90003149086000BF3048006800F40030009021
:100AA0000198401C0190009818B90198B0F5A06F0A
:100AB000F1D12948006800F4003010B10120009005
:100AC00001E0002000900098012843D123480068ED
:100AD00040F01000214908600846006820F003003B
:100AE00008600846006840F0020008601A48406844
:100AF000194948600846406848600846406840F424
:100B0000806048600846406820F47C1048600846D1
:100B1000406840F4E81048600846006840F0807083
:100B2000086000BF0C48006800F000700028F9D091
:100B30000948406820F003000749486008464068BB
:100B400040F00200486000BF0348406800F00C001D
:100B50000828F9D10CBD000000100240002002401E
:100B600010B51348006840F00100114908600846BC
:100B70004068104908400E494860084600680E4920
:100B800008400B4908600846006820F4802008608F
:100B90000846406820F4FE0048604FF41F0088605B
:100BA000FFF76AFF4FF000600449086010BD0000C5
:100BB000001002400000FFF8FFFFF6FE08ED00E025
:100BC000F0B50C46154600220021068C4FF6FE7744
:100BD0003E400684028B018C4FF60C7632407E1C20
:100BE00006EA03162E433243104EB0420ED0104E8A
:100BF000B0420BD0B0F1804F08D00E4EB04205D0BD
:100C00000D4EB04202D00D4EB04206D14FF6FD76E9
:100C1000314044F00106314305E04FF6F5763140AE
:100C200044F00106314302830184F0BD002C0140F1
:100C3000003401400004004000080040000C004067
:100C4000F0B50C461546002200210026078C4FF611
:100C5000EF7C07EA0C070784028B018C4FF6FF77C5
:100C600007EA041640F6FF473A404FF6FF7707EAD7
:100C700003373A434FF6FF7707EA05273A43114F08
:100C8000B8420ED0104FB8420BD0B0F1804F08D010
:100C90000E4FB84205D00E4FB84202D00D4FB842A9
:100CA00006D14FF6DF77394046F01007394305E0AB
:100CB0004FF65F77394044F01007394302830184CF
:100CC000F0BD0000002C0140003401400004004051
:100CD00000080040000C0040F0B50C46154600220C
:100CE00000210026078C4FF6FF6C07EA0C070784EB
:100CF000828B018C4FF6FF7707EA04264FF60C77BC
:100D00003A404FF6FF7707EA03172F433A43114F54
:100D1000B8420ED0104FB8420BD0B0F1804F08D07F
:100D20000E4FB84205D00E4FB84202D00D4FB84218
:100D300006D14FF6FF57394046F48077394305E036
:100D40004FF2FF57394044F480773943828301845E
:100D5000F0BD0000002C01400034014000040040C0
:100D600000080040000C0040F0B50C46154600227B
:100D700000210026078C4EF6FF7C07EA0C0707844B
:100D8000828B018C4FF6FF7707EA043640F6FF4767
:100D90003A404FF6FF7707EA05273A434FF6FF77C9
:100DA00007EA03373A43114FB8420ED0104FB8420A
:100DB0000BD0B0F1804F08D00E4FB84205D00E4F87
:100DC000B84202D00D4FB84206D14DF6FF773940F8
:100DD00046F48057394305E047F6FF57394044F45D
:100DE0008057394382830184F0BD0000002C01400C
:100DF000003401400004004000080040000C0040A6
:100E00004FF08040008A4FF08040008A20F00100BF
:100E10004FF080410882704710B501210B4800F067
:100E2000A5F870B14FF08040808C00B2084908608E
:100E300008460068FFF778FC84B22146054800F0B8
:100E400064F90121014800F052F810BD000400408F
:100E500014000020002C01407FB505460C460121FE
:100E60000220FFF77FFDADF80850ADF804400020E8
:100E7000ADF80A00ADF8060001A90E4800F076F9B9
:100E8000012211460B4800F0E2F81D208DF8000009
:100E900000208DF8010003208DF8020001208DF85C
:100EA00003006846FFF7C2FC0121024800F022F867
:100EB0007FBD00000004004004480088034800880B
:100EC00020F0010001490880704700001008004030
:100ED00021B1028842F08002028004E002884FF6CD
:100EE0007F731A4002807047CA4302827047CA4328
:100EF0000282704721B1028842F00102028004E0C0
:100F000002884FF6FE731A400280704731B1B0F884
:100F1000442042F40042A0F8442005E0B0F8442008
:100F2000C2F30E02A0F844207047F0B50C461546F7
:100F30001E460021002200230189028B038C4FF6FC
:100F4000F877394021434FF6FC473A4040F2011709
:100F50003A434FF6DD773B404FF6FF7707EA061737
:100F60002F433B43018102830384F0BD30B5024629
:100F7000002000230024158A05EA0103958905EA6B
:100F8000010413B10CB1012000E0002030BD0000CD
:100F900070B505460C46244885420ED0234885424C
:100FA0000BD0B5F1804F08D02148854205D02148AB
:100FB000854202D02048854200D100E000BF208851
:100FC00050B92389A28861882846FFF7F9FDE18896
:100FD000284600F09EF825E0208804280AD12389BD
:100FE000A28861882846FFF72BFEE188284600F09A
:100FF00099F817E0208808280AD12389A2886188F7
:101000002846FFF769FEE188284600F098F809E0D5
:101010002389A28861882846FFF7A6FEE188284632
:1010200000F096F870BD0000002C01400034014033
:101030000004004000080040000C00400021018036
:101040004180012181800021C180018170471AB156
:1010500083890B43838102E083898B4383817047BB
:1010600070B5002400220023058C4FF6FE76354033
:101070000584028C8388048B4FF68F752C40B51E37
:101080002C400D882C43751E2A400D892A434D881B
:101090002A43144DA8420BD0134DA84208D0134D3B
:1010A000A84205D0124DA84202D0124DA84213D139
:1010B0004FF6F7752A404D892A434FF6FB752A40B3
:1010C0008D882A434FF6FF652B404FF6FF552B4086
:1010D0008D892B43CD892B4383800483CD888586DE
:1010E000028470BD002C01400034014000400140EA
:1010F00000440140004801400A460021018B4FF6A0
:10110000F7731940114301837047818670478184CA
:101110007047028B4FF6F3731A400283028B0A4327
:1011200002837047028B4FF2FF331A400283028B17
:101130004FF6FF7303EA01231A4302837047828B41
:101140004FF6F3731A408283828B0A43828370477F
:10115000828B4FF2FF331A408283828B4FF6FF73EC
:1011600003EA01231A4382837047000000220288A9
:101170001D4B98420ED01D4B98420BD0B0F1804FC2
:1011800008D01B4B984205D01A4B984202D01A4BFC
:10119000984204D14FF68F731A404B881A43174B6D
:1011A000984207D0164B984204D04FF6FF431A409E
:1011B000CB881A4302808B8883850B8803850A4B72
:1011C00098420BD0094B984208D00E4B984205D05C
:1011D0000D4B984202D00D4B984201D10B7A0386F9
:1011E0000123838270470000002C0140003401403D
:1011F0000004004000080040000C004000100040C7
:1012000000140040004001400044014000480140FB
:101210004FF6FF71818000210180C1804180017201
:10122000704710B5FFF73AFBFFF75CFB10BD0000FD
:1012300010B540F225511F4800F0A0F8002838D022
:101240001C4800F057F9C4B221461BA000F058F921
:101250001A48008800F4004058BB1848008800F481
:10126000804060B10A2C03D000201449088020E09F
:101270001248008840F400401049088019E00D2C05
:1012800006D10E48008840F480400C49088010E0E8
:101290000A480088C0F30D0009490C54074800882B
:1012A000401C0649088008460088C72801DD002048
:1012B000088010BD00380140256300002000002098
:1012C0002800002010B586B00446012144F2040035
:1012D000FFF758FB4FF40070ADF8140003208DF8B1
:1012E000160018208DF8170005A91C48FFF78CF987
:1012F0004FF48060ADF8140004208DF8170005A9A4
:101300001648FFF781F925208DF8000003208DF89D
:1013100001008DF8020001208DF803006846FFF7F8
:1013200085FA01940020ADF80800ADF80A00ADF888
:101330000C00ADF810000C20ADF80E0001A9084813
:1013400000F06CF8012240F22551054800F040F809
:101350000121034800F006F806B010BD0008014066
:101360000038014021B1828942F40052828104E0B8
:1013700082894DF6FF731A408281704770B502462C
:10138000002400230025002040F66A16B14200D157
:1013900000BFC1F3421501F01F03012606FA03F353
:1013A000012D02D19689334006E0022D02D1168A22
:1013B000334001E0968A33400C12012606FA04F409
:1013C0001688344013B10CB1012000E0002070BD3C
:1013D000F0B50346002400260025002040F66A17D9
:1013E000B94200D100BF1846C1F3421401F01F06F4
:1013F000012707FA06F5012C01D10C3004E0022C7C
:1014000001D1103000E014301AB107682F43076093
:1014100002E00768AF430760F0BD00002DE9F04728
:1014200086B005460E460024A24600BFA14600270E
:10143000B08900B100BF2F462C8A4CF6FF700440E3
:10144000F08804432C82AC894EF6F3100440B08837
:1014500031890843718908430443AC81AC8A4FF653
:10146000FF400440B0890443AC8201A8FFF79AFA18
:101470001F48874202D1DDF810A001E0DDF80CA082
:10148000A88900F4004040B10AEBCA0000EB0A1042
:1014900031684900B0FBF1F807E00AEBCA0000EB45
:1014A0000A1031688900B0FBF1F86420B8FBF0F055
:1014B00004012009642101FB1089A88900F400407F
:1014C00040B1322000EBC900B0FBF1F000F00700A2
:1014D000044308E0322000EB09106421B0FBF1F076
:1014E00000F00F0004432C8106B0BDE8F087000037
:1014F0000038014001468888C0F3080070470000AA
:101500000FB4054B10B503A9044A029800F018F86F
:1015100010BC5DF814FB0000F91600081C00002048
:1015200002E008C8121F08C1002AFAD170477047AC
:10153000002001E001C1121F002AFBD1704700000A
:101540002DE9FF4F8BB09A460F460546002606E070
:1015500025280BD052460D9990476D1C761C287893
:101560000028F5D10FB03046BDE8F08F0024A0462A
:101570000122604900E0044315F8013F203B02FAD4
:1015800003F00842F7D128782E2817D115F8010F5B
:1015900044F004042A280ED06FF02F022878A0F11E
:1015A000300109290AD808EB880102EB410100EB60
:1015B00001086D1CF2E757F8048B6D1C2878692828
:1015C0003ED006DC0028CDD063280BD0642804D19F
:1015D00036E0732810D075284BD052460D999047AD
:1015E000761C85E017F8040B8DF8000000208DF8BC
:1015F0000100E946012003E057F8049B4FF0FF305B
:1016000061074FF0000401D40AE0641C44450DDA80
:101610008442FADB19F804100029F6D106E0641CB4
:101620008442FCDB19F804100029F8D1264404E0B8
:1016300019F8010B52460D999047641EF8D257E0F5
:1016400001CF4FF00A0B002802DA40422D2102E0C0
:10165000210504D52B218DF82410012103E0E10799
:1016600005D02021F7E70DF1200908910CE00021B9
:10167000F9E701CF4FF00A0BF9E75946FEF7BDFE37
:1016800001F1300209F8012D0028F6D1ADEB090077
:1016900000F1200B600701D44FF00108D84502DDAE
:1016A000A8EB0B0000E000208046002406E009A81B
:1016B0005246005D0D999047641C761C0898844240
:1016C000F5DB04E0302052460D999047761CB8F1C6
:1016D0000001A8F10108F5DC05E019F8010B5246FC
:1016E0000D999047761CBBF10001ABF1010BF4DCC6
:1016F0006D1C34E70928010000BF054A128802F07A
:101700004002002AF9D0C2B2014B1B1D1A8070475B
:10171000003801404FF4E130FFF7D4FD41F61F419E
:1017200040F2F310FFF798FBFEF71EFFFFF779FD7D
:10173000FFF760F8FFF750F804E00348016803A0E2
:10174000FFF7DEFEF9E7000014000020B1E0C2EB75
:10175000C6F7D6B5CEAAA3BA25640D0A00000000CC
:101760008017000800000020280000002015000855
:10177000A817000828000020F00400003015000819
:101780000000000001020304010203040607080927
:101790000204060800000000000000000000000035
:0817A00000000000F000002031
:0400000508000131BD
:00000001FF
