:020000040800F2
:10000000F00B0020450100084D0100084F010008D9
:1000100051010008530100085501000800000000CC
:100020000000000000000000000000005701000870
:1000300059010008000000005B010008C120000811
:100040005F0100085F0100085F0100085F01000810
:100050005F0100085F0100085F0100085F01000800
:100060005F0100085F0100085F0100085F010008F0
:100070005F0100085F0100085F0100085F010008E0
:100080005F0100085F0100085F0100085F010008D0
:100090005F0100085F0100085F0100085F010008C0
:1000A0005F0100085F0100085F0100085F010008B0
:1000B0005F010008212500085F0100085F010008BA
:1000C0005F0100085F0100085F0100085F01000890
:1000D0005F0100085F010008D52E00085F010008DD
:1000E0005F0100085F0100085F0100085F01000870
:1000F0005F0100085F0100085F0100085F01000860
:100100005F0100085F010008DD2500085F010008AD
:100110005F0100085F010008E92600085927000870
:100120005F0100085F0100085F0100085F0100082F
:10013000DFF80CD000F060FC00480047393C0008B4
:10014000F00B00200648804706480047FEE7FEE720
:10015000FEE7FEE7FEE7FEE7FEE7FEE7FEE7FEE777
:100160003521000831010008F0B480EA0102D40F03
:100170004200B2EB410F02D20246084611464A0045
:1001800042D0C30DDDB2C1F3C752AD1A202D35DA0E
:10019000C1F3160141F4000204B15242C5F1200638
:1001A00002FA06F12A411044B3EBD05F23D0C4B168
:1001B000012DA0EBC35009DCF0BC4FF0004202EA75
:1001C000C352DBB200F5000000F05BBB400000F161
:1001D000807000EBC350A0F1807040EAD1704900FC
:1001E00009E0490841EAC071A0EBC35000F50000E6
:1001F000400800EBC350F0BC00F03ABB6142012262
:1002000002EB4101001BF6E7F0BC704781F00041B2
:10021000AAE780F00040A7E780EA010210B502F0EB
:100220000043400022D04A001FD0010E01EB1261B2
:10023000C0F35600C2F3560240F4000042F400023C
:10024000A0FB022000047F39140400D0401C50EAB7
:10025000124001D44000491EC2B20C0604EBD0107B
:10026000401C4008802A02D003E0002010BD20F08E
:100270000100002900DA0020184310BD30B480EAE4
:10028000010202F0004530F0004221F0004013D09E
:1002900090B1C30DD40DC2F31601C0F31600E41AD9
:1002A00041F4000140F400027D34914201D3641C0A
:1002B00000E04900002C02DA30BC002070474FF407
:1002C00000000023914201D3891A034340084FEAFA
:1002D0004101F7D151B1914202D14FF0004105E007
:1002E00002D24FF0010101E06FF0010103EBC450B5
:1002F000284430BC00F0BCBA2DE9FE4F804681EAAC
:100300000300C00F0C46009021F0004123F000458F
:10031000B8EB0200A94105D24046214690461C4652
:100320000B46024623F00040104347D0270DC7F389
:100330000A00C3F30A510290401A019040286BDA78
:10034000C3F3130040F4801B0098924620B10023B1
:10035000D2EB030A63EB0B0B01985946C0F1400244
:10036000504600F054FA06460D4650465946019A4A
:1003700000F06CFA10EB08006141002487EA11528A
:1003800084EAE7731A4340D0009A62B3019A012AC3
:100390004FEA075215DC001B61EB02014FF00042EF
:1003A00002EA0752CDE90042001C41F580113246B5
:1003B0002B4600F0A3FA03B0BDE8F08F404621467B
:1003C000F9E7001B61EB0201001C41F580130018E6
:1003D0005B412018A2F5001747EB030140EAD570F6
:1003E000B6196D4111E06D084FEA360645EAC07551
:1003F0004FEA0752001B61EB0201001C41F580111E
:1004000049084FEA30000019514132462B4603B0EB
:10041000BDE8F04F00F063BA0098012240000023CD
:10042000D0EB020263EBE073009821464FEAE074E0
:10043000B8EB000061EB0401E9E783F000435BE700
:1004400081F0004158E72DE9FE4F81EA030404F0F2
:10045000004421F0004100944FF0000B23F00043D2
:1004600050EA01045ED052EA03045BD0C3F30A549D
:10047000C1F30A552C44A4F2F3340194A0FB0254B6
:10048000C1F3130141F48011C3F3130343F4801348
:1004900001FB024400FB034E840A970A44EA81549C
:1004A00047EA8357A4FB076802958D0A05FB078579
:1004B0004FEA932C04FB0C542705029D4FEA065883
:1004C00047EA1637B5EB08056EEB070C870E920E60
:1004D00047EA811742EA8312A7FB0201B6EB0B0140
:1004E00064EB00042B0D43EA0C335E1844EB1C5004
:1004F000DA465146E7FB0201C5F313044FEA0B331A
:1005000043EA14534FEA0432019C43EA0603A4F180
:100510000C040294009CCDE900B400F0EFF903B0A4
:10052000BDE8F08F00200146F9E72DE9F04D81EAA2
:10053000030404F0004B21F0004514464FF0000A7C
:1005400023F0004150EA050220D054EA01021DD0F8
:10055000C5F30A570246C5F31303C1F31300C1F3F1
:100560000A5640F4801543F48013A7EB0608101BCD
:10057000D64608F2FD3873EB050002D308F10108F6
:1005800001E092185B41B8F1000F03DA0020014648
:10059000BDE8F08D00204FF48011064684460EE041
:1005A000171B73EB050705D3121B63EB050306430B
:1005B0004CEA010C49084FEA300092185B4150EABE
:1005C0000107EDD152EA030012D082EA040083EA67
:1005D0000501084305D0101BAB4106D201220023C0
:1005E00006E000224FF0004302E06FF001025310DA
:1005F0001AEB06004CEB085110EB0A0041EB0B0123
:10060000BDE8F04D00F06BB9C10F80EAE07008441E
:10061000CA079623002100F034B996230022114620
:1006200000F02FB90EB540F2334102910021CDE91F
:1006300000110A460B4600F061F903B000BD00F05E
:10064000004220F00040C10DC0F3160040F400004D
:100650007F2901DA00207047962903DCC1F1960159
:10066000C84001E096398840002AF4D040427047E3
:1006700020F00040C10DC0F3160040F400007F29B7
:1006800001DA00207047962903DCC1F19601C840C9
:100690007047963988407047C1F30A5210B5C1F3CC
:1006A000130140F2FF3341F480119A4201DA002035
:1006B00010BD40F233439A42A2F2334203DC52426D
:1006C00000F0B4F810BD904010BD00F0004230F0D2
:1006D00000400AD0C10D01F56071C0F3160042EA76
:1006E0000151C2084007114370470020014670477E
:1006F00030B5041E71F1000404DB4FF000444042A9
:1007000064EB0101141E73F1000405DB1C464FF07D
:100710000043524263EB04038B4208BF824230BD68
:1007200001F0004330B421F0004150EA010206D04C
:100730000A0DA2F56072C1F31301002A02DC30BC7D
:1007400000207047440F44EAC104C100E01830BCE7
:1007500000EBC25000F08CB8002801DBC0F1004073
:10076000002901DBC1F1004181427047002801DB13
:10077000C0F10040002901DBC1F10041884270470F
:1007800030B50B46014600202022012409E021FA61
:1007900002F59D4205D303FA02F5491B04FA02F55E
:1007A0002844151EA2F10102F1DC30BD2DE9F05FF5
:1007B0000546002092469B468846064681464024D0
:1007C0001BE0284641464746224600F02FF8534694
:1007D0005A46C01A914110D311461846224600F0DD
:1007E00016F82D1A67EB01084F462246012000211A
:1007F00000F00DF817EB00094E41201EA4F1010492
:10080000DFDC484631462A464346BDE8F09F202AB1
:1008100004DB203A00FA02F1002070479140C2F157
:10082000200320FA03F3194390407047202A04DB89
:10083000203A21FA02F00021704721FA02F3D04059
:10084000C2F120029140084319467047202A06DB76
:10085000CB17203A41FA02F043EAE07306E041FA8E
:1008600002F3D040C2F1200291400843194670477C
:100870000029A8BF7047401C490008BF20F00100B4
:10088000704710B4B0FA80FC00FA0CF050EA010492
:1008900004BF10BC704749B1CCF1200421FA04F424
:1008A00011FA0CF118BF012121430843A3EB0C01FD
:1008B000CB1D4FEA00614FEA102042BF002010BC60
:1008C000704700EBC35010440029A4BF10BC704710
:1008D000401C490008BF20F0010010BC704710B553
:1008E000141E73F1000408DA401C41F10001921853
:1008F0005B411A4301D120F0010010BD2DE9F04DFC
:1009000092469B4611B1B1FA81F202E0B0FA80F250
:1009100020329046FFF77BFF04460F4640EA0A006C
:1009200041EA0B0153465A46084313D0114653EA95
:10093000010019D0C8F140025046FFF777FF054685
:100940000E46504659464246FFF761FF084305D020
:10095000012004E020463946BDE8F08D0020054323
:1009600046EAE0762C4337430A986305E40AA0EB95
:1009700008000022FD0A44EA47540A3002D500204C
:100980000146E9E7010510196941DDE9084500194B
:100990006941BDE8F04DA2E7C1F30A52C1F313016A
:1009A00040F2FF3341F480119A4202DA00200146FE
:1009B000704740F233439A42A2F2334202DC524281
:1009C000FFF734BFFFF723BF30B5041E71F10004F9
:1009D00004DB4FF00044404264EB0101141E73F14C
:1009E000000405DB1C464FF00043524263EB040356
:1009F000994208BF904230BD064C074D06E0E068C2
:100A000040F0010394E8070098471034AC42F6D355
:100A1000FFF792FBF44700081448000800B585B0C2
:100A2000184800F03DF84FF4004001F0CFF80020E6
:100A300000908DF804008DF805004FF460200290BE
:100A40000020039001208DF8100069460D4800F049
:100A500077F801210B4800F017F80A4800F0F4F885
:100A600000BF084800F061F80028FAD1054800F0FE
:100A7000FBF800BF034800F041F80028FAD105B0A8
:100A800000BD00000024014021B1826842F0010253
:100A9000826003E0826822F00102826070470000F9
:100AA00010B504461248844208D10121401501F0D6
:100AB000C9F80021601501F0C5F817E00D4884421F
:100AC00008D10121001501F0BDF80021201501F029
:100AD000B9F80BE00848844208D10121C80301F0AD
:100AE000B1F800214FF4004001F0ACF810BD000057
:100AF0000024014000280140003C01400146002044
:100B00008A6802F004020AB1012000E00020704768
:100B10000146C86C80B270470246002013680B4043
:100B20000BB1012000E000207047014600208A68D8
:100B300002F008020AB1012000E000207047000026
:100B400030B502460020002350680F4C20400D793C
:100B50000C6844EA05242043506090680B4C204008
:100B6000D1E902542C434D7944EA45042043906076
:100B7000D06A20F470000C7C641EE4B2234340EA87
:100B80000350D06230BD0000FFFEF0FFFDF7F1FF23
:100B9000F0B504460D4600200021092D11DDE06866
:100BA000A5F10A0606EB4607072606FA07F1884371
:100BB000A5F10A0606EB460603FA06F10843E060D3
:100BC0000CE0206905EB4507072606FA07F1884384
:100BD00005EB450603FA06F108432061072A0FDA00
:100BE000606B561E06EB86071F2606FA07F1884340
:100BF000561E06EB860605FA06F10843606322E0FE
:100C00000D2A0FDA206BD61F06EB86071F2606FA81
:100C100007F18843D61F06EB860605FA06F108435E
:100C2000206310E0E06AA2F10D0606EB86071F269E
:100C300006FA07F18843A2F10D0606EB860605FACF
:100C400006F10843E062F0BD816841F0080181606F
:100C5000704721B1826842F4A002826003E082689A
:100C600022F4A00282607047816841F00401816033
:100C70007047000008B501214FF4047000F0D2FF66
:100C80000120ADF8000000208DF8030069460948F6
:100C900000F0DEF90620ADF8000010208DF803000A
:100CA00003208DF802006946024800F0D1F9FFF7F1
:100CB000B5FE08BD0010014001B56421009848430D
:100CC0000349086000BF024800680028FBD108BD46
:100CD0007800002001B504490098086000BF024870
:100CE00000680028FBD108BD7800002010B500F096
:100CF0004DFA10BD002000E0401C0A28FCDB7047C4
:100D0000002123498279002A3AD00A4612680368F2
:100D10009A430B461A600A1D126803689A430B1D1A
:100D20001A60027911440A6803681A430A60184A73
:100D30000832126803689A43154B08331A601A1D6B
:100D4000126803689A43124B0C331A604279102AD6
:100D50000ED11A1F126803681A430D4B08331A602C
:100D60001A1D126803681A43094B0C331A600DE010
:100D70000749427911440A6803681A430A6005E08A
:100D8000027911440A6803689A430A6070470000B8
:100D9000000401407A4800887A49088005207A4991
:100DA000088014E076487849098830F811007549C0
:100DB0000988884206DB72487349098830F81100B7
:100DC0007049088070480088401C6F4908806E4850
:100DD00000887B28E6DB6A4800886C49088005208B
:100DE0006949088014E066486749098830F81100AD
:100DF00066490988884206DC61486349098830F8F9
:100E000011006249088060480088401C5E490880E3
:100E10005D4800887B28E6DB5A4909885B4A1288CE
:100E2000881800EBD071C1F34701594A11700520B1
:100E30005549088044E052485349098830F8110068
:100E400053490978884236DD4D494F480088401C97
:100E500031F810004E49097888422CDD48494A484B
:100E60000088801C31F8100049490978884222DD49
:100E7000434945480088C01C31F8100044490978AE
:100E8000884218DA3E4940480088001D31F81000B9
:100E90003F49097888420EDA39493B480088401DAD
:100EA00031F810003A490978884204DA3648008857
:100EB0003849088008E034480088401C32490880DE
:100EC000314800887628B6DB00BF7620324908809A
:100ED00044E02B483049098830F811002C49097842
:100EE000884236DA26492C480088401C31F8100028
:100EF0002749097888422CDA214927480088801C34
:100F000031F8100022490978884222DA1C49224827
:100F10000088C01C31F810001D490978884218DD8E
:100F200017491D480088001D31F81000184909783C
:100F300088420EDD124918480088401D31F8100023
:100F400013490978884204DD134800881349088052
:100F500008E011480088401E0F4908800E480088AC
:100F60000528B6DC00BF0D4909880A4A128888188E
:100F700000EBD071C1F34701094A117070470000BE
:100F8000C40000204E000020460000205000002039
:100F9000430000204A000020480000204C000020B0
:100FA0004400002010B5044600F082FA1049087091
:100FB0000846007801281AD10E48007820B94FF46D
:100FC0007A7000F0EDFA12E009480078022804D1A6
:100FD0004FF4167000F0E4FA09E0054800780328A1
:100FE00005D10448007810B9002000F0D9FA10BDEE
:100FF000540000206800002010B5034800F0E8FF0E
:1010000001200249087010BD0000A0C02800002087
:1010100030B500228B071C0F0F2303FA04F20B4B91
:101020008C1053F824309343084C8D1044F825302D
:1010300023468C1053F824308C07240F00FA04F454
:101040002343024C8D1044F8253030BD0800014088
:101050002DE9F0410246002500260020002300244F
:10106000002791F803C00CF00F0591F803C00CF0B5
:10107000100CBCF1000F03D091F802C04CEA05053A
:1010800091F800C0BCF1000F31D0146800202BE0B3
:101090004FF0010C0CFA00F3B1F800C00CEA0306A3
:1010A0009E4220D183004FF00F0C0CFA03F7BC4393
:1010B00005FA03FC4CEA040491F803C0BCF1280FC4
:1010C00006D14FF0010C0CFA00FCC2F814C00AE083
:1010D00091F803C0BCF1480F05D14FF0010C0CFA98
:1010E00000FCC2F810C0401C0828D1D31460B1F82D
:1010F00000C0BCF1FF0F34DD546800202EE000F189
:10110000080C4FF0010808FA0CF3B1F800C00CEA23
:1011100003069E4221D183004FF00F0C0CFA03F717
:10112000BC4305FA03FC4CEA040491F803C0BCF18B
:10113000280F05D100F1080C08FA0CF8C2F8148049
:1011400091F803C0BCF1480F07D100F1080C4FF033
:10115000010808FA0CF8C2F81080401C0828CED309
:101160005460BDE8F0810246002093680B400BB14B
:10117000012000E000207047416170470161704725
:101180000AB1016100E04161704700002DE9F041C2
:101190004FF480613E48FFF7EFFF01203D490870A2
:1011A00000213D4801F049FD01213B4801F0C2FB0F
:1011B00000BF394801F0FDFB0B28FADB022035495E
:1011C000087041023248FFF7D9FF0021324801F090
:1011D00034FD12E0304801F0ECFB4EF6602188420D
:1011E0000BDD00202B4908702CA002F099F800219B
:1011F000294801F09FFBBDE8F08101212448FFF759
:10120000B2FF0028E6D00021234801F016FD13E0CC
:10121000214801F0CEFB04464EF6602084420ADDF0
:1012200000201C4908701DA002F07AF800211A481D
:1012300001F080FBDFE700BF01211548FFF793FFB6
:101240000128E5D0144801F0B4FB194908600021D9
:10125000114801F06FFB16480068FFF7E3F90646F6
:101260000022144BFFF7EFF804460022124BFFF761
:101270005CF9124A1060516010460268436810A081
:1012800002F04EF800200349087000BFB3E70000E9
:10129000000801409C00002000080040556C74725A
:1012A00061736F6E6963204572726F72200D0A0060
:1012B000A00000200000414000409F40A800002006
:1012C000256C6620636D200D0A00000010B50446F1
:1012D0000723012221460948FFF75AFC012107484C
:1012E000FFF7B7FC00BF02210448FFF715FC0028F8
:1012F000F9D00248FFF70CFC10BD000000240140AB
:1013000010B52A4A128812B2294B5A801A4691689F
:10131000B2F90220B3F9043003EB4304C4EBC31366
:1013200002EB0310421A12B2214B1A8014E0204A39
:101330009288521E12B21E4B9A801A46B2F90220AF
:10134000B3F9043003EB4304C4EBC31302EB031003
:10135000421A12B2164B1A80154AB2F9002042F610
:10136000E0639A42E3DC14E0114A9288521C12B204
:101370000F4B9A801A46B2F90230B2F9042002EB00
:101380004204C4EBC21203EB0210421A12B2084B21
:101390001A80074AB2F90020064B9A42E4DB044A5D
:1013A0009060B2F90020044B1A6010BD2404004084
:1013B000C401002020D1FFFF380000202DE9F05F9C
:1013C000044623490868FFF71FF907462146FEF740
:1013D0001DFF05461F492846FFF7BEF905D21E49E5
:1013E0002846FFF7C3F900D2002519498869FFF79D
:1013F0000BF98146164801694846FEF70DFF07467E
:1014000013494869FFF700F983461148C1685846F7
:10141000FEF702FF81460E4988682946FEF7FCFE6A
:1014200082464946FEF7F2FE80463946FEF79CFEAC
:10143000064607484069064988612846FFF7FFF8D5
:10144000034948613046FFF7FAF8BDE8F09F000015
:10145000D0010020CDCC4C3ECDCC4CBE08B50121F6
:10146000042000F0DFFB0121402000F0DBFB3020F6
:10147000ADF8000001208DF8020048208DF803002F
:1014800069460948FFF7E4FD4FF40040ADF800005D
:1014900001208DF8020048208DF8030069460348BA
:1014A000FFF7D6FD08BD000000080140001801400C
:1014B00010B510211848FFF756FE01280CD0202146
:1014C0001548FFF750FE012806D04FF4004113489D
:1014D000FFF749FE01281AD10A20FFF7EDFB102182
:1014E0000D48FFF740FE012800D110BD20210A4819
:1014F000FFF739FE012801D10220F6E74FF4004141
:101500000648FFF730FE012804D10320EDE7002054
:10151000034908700020E8E7000801400018014076
:101520006800002008B50121242000F07BFB4FF467
:101530008050ADF8000003208DF8020010208DF8D7
:10154000030069460848FFF783FD0820ADF8000056
:1015500003208DF8020010208DF80300694603482F
:10156000FFF776FD08BD00000008014000140140AF
:1015700010B54FF480510848FFF7FEFD08210748D9
:10158000FFF7FCFD4FF47A70FFF796FB0821034844
:10159000FFF7F2FD10BD00000008014000140140FB
:1015A00070B50446002C01DB002500E00125201E5B
:1015B00001DB014600E041420C46B4F5E15F01DB8E
:1015C00041F61F4445B10021084801F032FBA1B2A9
:1015D000064801F030FB07E0A1B2044801F029FB06
:1015E0000021024801F027FB70BD000000340140DB
:1015F00008B54FF4A06000F081F81D208DF80000C0
:1016000001208DF8010000208DF8020001208DF8E6
:101610000300684600F03AF832208DF80000002000
:101620008DF801008DF8020001208DF80300684656
:1016300000F02CF836208DF8000000208DF8010015
:1016400001208DF802008DF80300684600F01EF8B6
:1016500037208DF8000000208DF801008DF8020081
:1016600001208DF80300684600F010F826208DF860
:10167000000001208DF8010002208DF802000120F9
:101680008DF80300684600F001F808BD70B5002130
:1016900000230F22C47804B3154C246804F4E064DA
:1016A000C4F5E064210AC1F10403CA40447804FA95
:1016B00003F184781440214309010E4C0678A155AA
:1016C000047804F01F050124AC4005786D11AD00CD
:1016D00005F1E025C5F8004109E0047804F01F0594
:1016E0000124AC40044D0678761145F8264070BDC3
:1016F0000CED00E000E400E080E100E0024901437D
:10170000024A1160704700000000FA050CED00E08D
:1017100070B500240CE0002506E00020074901EB2D
:10172000C5010855681CC5B2802DF6DB601CC4B22B
:10173000082CF0DB00F0CEF870BD0000EC010020BA
:10174000F0B5144600267F2801DC3F2900DDF0BDFE
:101750000B46CF1701EB5777FF10C7F10707FAB217
:10176000CF1701EB5777FF10A1EBC707FDB2C5F10B
:1017700007070123BB40DEB24CB10A4B03EBC003A9
:101780009B5C3343074F07EBC007BB5408E0054B96
:1017900003EBC0039B5CB343024F07EBC007BB5492
:1017A00000BFD4E7EC0100202DE9F04106460D46CC
:1017B000174600243A4629463046FFF7C1FF3A460D
:1017C00029463046FFF7BCFF00BF07E02819C1B229
:1017D0003A463046FFF7B4FF601CC4B2082CF5DB74
:1017E000BDE8F08110B500F02BFB00203749086000
:1017F0006420FFF761FA01203549C1F8B8010021E2
:10180000AE2000F0B3F90021D52000F0AFF900219F
:10181000502000F0ABF90021A82000F0A7F900212A
:101820003F2000F0A3F90021D32000F09FF9002110
:10183000084600F09BF90021402000F097F90021B4
:101840008D2000F093F90021142000F08FF9002181
:10185000202000F08BF90021022000F087F9002100
:10186000A12000F083F90021C02000F07FF90021C1
:10187000DA2000F07BF90021122000F077F9002136
:10188000812000F073F90021EF2000F06FF90021B2
:10189000D92000F06BF90021F12000F067F9002158
:1018A000DB2000F063F90021302000F05FF9002117
:1018B000A42000F05BF90021A62000F057F90021D8
:1018C000AF2000F053F9FFF723FF10BDB88121428C
:1018D0000080214270B500241CE004F1B001C8B2C0
:1018E000002100F043F90021084600F03FF90021F3
:1018F000102000F03BF9002508E0084901EBC50184
:10190000085D012100F032F9681CC5B2802DF4DBBE
:10191000601CC4B2082CE0DB70BD0000EC010020AC
:101920002DE9F04F80460C4615461E46A346A5F10C
:101930002000C5B200273EE00C2E07D105EB450084
:101940001F4901EB800010F8079004E01D4800EBF0
:10195000051010F807904FF0000A26E009F080000B
:1019600028B121464046099AFFF7EAFE09E00998A6
:1019700008B9012000E00020024621464046FFF75A
:10198000DFFE4FEA49604FEA1069601CC4B2A4EB65
:101990000B00B04205D15C4608F1010000F0FF08E1
:1019A00006E00AF1010000F0FF0ABAF1080FD5DBEA
:1019B00000BF781CC7B2B742BEDBBDE8F08F0000A5
:1019C000D23C0008464100082DE9FF4F81B0074690
:1019D00091461E460E9D4FF0000A002439E0301B50
:1019E000401EC1B20A2002F069F9B9FBF0F00A21E9
:1019F000B0FBF1F201FB1208BAF1000F16D1701E14
:101A0000A04213DDB8F1000F0ED10120AB4605EB6B
:101A1000DB71491001FB04710090C8B22B462022F3
:101A20000299FFF77DFF12E04FF0010A0120AB465B
:101A300005EBDB71491001FB04710090C8B208F19D
:101A40003001CAB22B460299FFF76AFF00BF601C43
:101A5000C4B2B442C3DB05B0BDE8F08FF8B50546AB
:101A60000E46144618E07A2D03DD002506F110001D
:101A7000C6B23A2E04DD002005460646FFF748FEB2
:101A80000120009022780C2331462846FFF748FFBA
:101A900005F10800C5B2641C20780028E3D1F8BD28
:101AA00070B5002410E00A4830F81400094909789C
:101AB000884201DA012500E000252A46002120465F
:101AC000FFF772FE601CC4B2802CECDB70BD00001E
:101AD000C40000204300002008B51B4800780128FE
:101AE00005D1032000F0AAFA002017490870174812
:101AF0000068401C1549086008460068B0F57A7F08
:101B000021D100200860FFF7CBFF11A2282100207F
:101B1000FFF7A4FF0C20042300901048027828212E
:101B20005020FFF751FF0EA232210020FFF796FF51
:101B30000C20042300900C48027832213C20FFF74F
:101B400043FFFFF7C7FE08BD740000206C000020B3
:101B50005468726573686F6C643A0000430000203B
:101B60004D6964646C653A004400002070B5044619
:101B70000D461DB101200A49086002E00020084915
:101B8000086000BF0221074800F024F90028F9D0BE
:101B90002146044800F027F90220FFF79BF870BDAA
:101BA000B081214200380040002005494861886129
:101BB000044888600448C860086164200860704771
:101BC000D00100209A99993ECDCCCC3D0146002011
:101BD000034A506820F440400843506070470000BA
:101BE0000010024029B1064AD2690243044BDA616F
:101BF00004E0034AD2698243014BDA617047000076
:101C00000010024029B1064A12690243044B1A61CE
:101C100004E0034A12698243014B1A6170470000D5
:101C20000010024029B1064A92690243044B9A61AE
:101C300004E0034A92698243014B9A6170470000B5
:101C40000010024029B1064AD2680243044BDA6010
:101C500004E0034AD2688243014BDA607047000017
:101C60000010024030B500210022002400232D4D39
:101C70006D6805F00C0121B1042905D0082923D194
:101C800005E0294D056022E0274D05601FE0254D48
:101C90006D6805F47012234D6D6805F480340225DB
:101CA00005EB92421CB9214D554305600BE01D4DDB
:101CB0006D6805F400351DB11C4D5543056002E00B
:101CC000194D5543056002E0174D056000BF00BF88
:101CD000144D6D6805F0F0010909154D6B5C056840
:101CE000DD4045600F4D6D6805F4E061090A104D57
:101CF0006B5C4568DD4085600A4D6D6805F4605198
:101D0000C90A0B4D6B5C4568DD40C560054D6D68CB
:101D100005F44041890B074D6B5CC568B5FBF3F5D5
:101D2000056130BD0010024000127A0000093D003C
:101D3000140000202400002070B50024002501209C
:101D40001B49086000201B49C1F88801FEF7D2FF3B
:101D500001201749091D086000201649C1F88401B7
:101D6000FEF7C8FF01201249086000201149C1F8A0
:101D70008801FEF7BFFF00BF17E000200C49086094
:101D8000FEF7B8FFFEF7B6FF0A20FFF79FFA001133
:101D9000094921F81500681CC5B201200549C1F8A0
:101DA0008401FEF7A7FF601CC4B2802CE5DB70BD88
:101DB0008401224200002242C400002021B1028896
:101DC00042F04002028004E002884FF6BF731A40DE
:101DD000028070470246002013890B400BB101209E
:101DE00000E0002070478181704710B50022028812
:101DF00002F441520B884C8823438C882343CC88BF
:101E000023430C8923434C8923438C892343CC8966
:101E100023431A430280838B4FF2FF742340838352
:101E20000B8A038210BD21B1828842F004028280B5
:101E300004E082884FF6FB731A40828070470000EE
:101E400000B587B001210820FFF7ECFE01218803CF
:101E5000FFF7C8FE01212248FFF7E5FF4FF42040BD
:101E6000ADF8180018208DF81B0003208DF81A001B
:101E700006A91C48FFF7ECF84FF4A040ADF8180095
:101E800010208DF81B0003208DF81A0006A91548B4
:101E9000FFF7DEF80020ADF804004FF48270ADF8D3
:101EA00006000020ADF80800ADF80A00ADF80C00FF
:101EB0004FF40070ADF80E001820ADF810000020AF
:101EC000ADF812000720ADF8140001A90448FFF78F
:101ED0008CFF01210248FFF771FF07B000BD000031
:101EE00000380040000C014010B500F001F810BDB2
:101EF0000CB50020019000903348006840F4803019
:101F00003149086000BF3048006800F4003000909C
:101F10000198401C0190009818B90198B0F5A06F85
:101F2000F1D12948006800F4003010B10120009080
:101F300001E0002000900098012843D12348006868
:101F400040F01000214908600846006820F00300B6
:101F500008600846006840F0020008601A484068BF
:101F6000194948600846406848600846406840F49F
:101F7000806048600846406820F47C10486008464D
:101F8000406840F4E81048600846006840F08070FF
:101F9000086000BF0C48006800F000700028F9D00D
:101FA0000948406820F00300074948600846406837
:101FB00040F00200486000BF0348406800F00C0099
:101FC0000828F9D10CBD000000100240002002409A
:101FD0002DE9F14F82B015490298FEF7C5F802903D
:101FE0000298FEF772FB80460022114BFEF72BFA97
:101FF000064600220F4BFEF798FA044600220E4BCD
:10200000FEF77AF98246FEF747FB80B20190FEF7B1
:1020100004FB02900298FEF72BFB84B221464FF09E
:10202000804000F008FEBDE8FE8F00000000B442D2
:10203000000049400000224000206F402DE9F0419F
:102040000446032C27D1FFF75BF91549B1F90000CD
:10205000FEF7DAFA06461349FEF710F9054612496B
:10206000FEF7DAF8114908604FF080410F48006828
:10207000FEF704F90E49086008460068FEF725FBE4
:1020800005460C4A0C4BFEF7DEF90746FEF748FB07
:102090000A49086000E000BF00BFBDE8F081000011
:1020A000C40100200000FA44000020416400002028
:1020B0005C0000203B43D5598CA2634060000020A7
:1020C00010B500F0E5FE10BD30B516480068164AA0
:1020D000B0FBF2F1B1F1807F01D301201DE021F0CE
:1020E0007F40401E4FF0E022506150170F22002821
:1020F00007DA13071D0E0D4B00F00F04241F1D55AA
:1021000003E013071C0E0A4B1C5400BF00204FF0C5
:10211000E022906107201061002008B100BFFEE7B7
:1021200030BD000000000020A086010018ED00E096
:1021300000E400E010B51348006840F001001149C8
:10214000086008464068104908400E494860084643
:1021500000680E4908400B4908600846006820F4F2
:10216000802008600846406820F4FE0048604FF474
:102170001F008860FFF7B8FE4FF000600449086058
:1021800010BD0000001002400000FFF8FFFFF6FE47
:1021900008ED00E0F0B50C46154600220021068C43
:1021A0004FF6FE773E400684028B018C4FF60C768C
:1021B00032407E1C06EA03162E433243104EB042D4
:1021C0000ED0104EB0420BD0B0F1804F08D00E4E62
:1021D000B04205D00D4EB04202D00D4EB04206D1F5
:1021E0004FF6FD76314044F00106314305E04FF6ED
:1021F000F576314044F00106314302830184F0BD9D
:10220000002C014000340140000400400008004060
:10221000000C0040F0B50C461546002200210026B7
:10222000078C4FF6EF7C07EA0C070784028B018CC2
:102230004FF6FF7707EA041640F6FF473A404FF69D
:10224000FF7707EA03373A434FF6FF7707EA052798
:102250003A43114FB8420ED0104FB8420BD0B0F1F4
:10226000804F08D00E4FB84205D00E4FB84202D072
:102270000D4FB84206D14FF6DF77394046F01007D0
:10228000394305E04FF65F77394044F01007394392
:1022900002830184F0BD0000002C014000340140A5
:1022A0000004004000080040000C0040F0B50C465F
:1022B0001546002200210026078C4FF6FF6C07EA26
:1022C0000C070784828B018C4FF6FF7707EA042600
:1022D0004FF60C773A404FF6FF7707EA03172F4384
:1022E0003A43114FB8420ED0104FB8420BD0B0F164
:1022F000804F08D00E4FB84205D00E4FB84202D0E2
:102300000D4FB84206D14FF6FF57394046F480775B
:10231000394305E04FF2FF57394044F480773943A1
:1023200082830184F0BD0000002C01400034014094
:102330000004004000080040000C0040F0B50C46CE
:102340001546002200210026078C4EF6FF7C07EA86
:102350000C070784828B018C4FF6FF7707EA04365F
:1023600040F6FF473A404FF6FF7707EA05273A4322
:102370004FF6FF7707EA03373A43114FB8420ED0C2
:10238000104FB8420BD0B0F1804F08D00E4FB8427A
:1023900005D00E4FB84202D00D4FB84206D14DF6CF
:1023A000FF77394046F48057394305E047F6FF5739
:1023B000394044F48057394382830184F0BD0000E2
:1023C000002C01400034014000040040000800409F
:1023D000000C004000B589B001210420FFF722FC69
:1023E00001210846FFF7FEFB0220ADF8200018206F
:1023F0008DF8230003208DF8220008A91948FEF764
:1024000027FE42F20F70ADF818008F20ADF81400CF
:102410000020ADF81A00ADF8160005A94FF0804075
:1024200000F03AFC6020ADF804000120ADF8060091
:102430000220ADF80C000020ADF80A0001A94FF011
:10244000804000F097FB0821C80600F0E5FB012161
:10245000880700F05DFA0121880700F06BFA09B0E7
:1024600000BD00000008014000B587B00121042034
:10247000FFF7D8FB01210220FFF7B4FB012108463A
:10248000FFF7D0FBC020ADF8180048208DF81B00E6
:1024900003208DF81A0006A91F48FEF7D9FD012276
:1024A00040211D48FEF76CFE012280211A48FEF7EC
:1024B00067FE40F2CF70ADF810000020ADF80C00C0
:1024C000ADF81200ADF80E0003A9144800F0E4FBCB
:1024D0000A231A460321114800F047FA684600F023
:1024E000D3FA0620ADF8080069460C4800F076FAE9
:1024F00001210A4800F018FA01221146074800F0AD
:10250000CCFA0021054800F098FB0121034800F0B7
:1025100011FA07B000BD00000008014000040040AF
:1025200010B501210F4800F047FAA8B10D48008806
:1025300000F0100030B10C488088401E00B20A49FB
:10254000888005E008488088401C00B206498880E1
:102550000121044800F0EBF90121024800F0E7F9FD
:1025600010BD000000040040C401002000B587B089
:1025700001210820FFF736FB42F20F70ADF814007E
:102580004720ADF810000020ADF81600ADF812009D
:1025900004A9114800F080FB0020ADF80400ADF85C
:1025A00006000120ADF808000020ADF80A00ADF8E3
:1025B0000C0001A9084800F011FA0121064800F0BA
:1025C000B3F901220321044800F067FA012102480F
:1025D00000F0B0F907B000BD000C004010B52B486A
:1025E000007800F0800000284BD10121284800F03D
:1025F000E3F9D0B12548007800F04000A8B12348A5
:10260000007800F03F003F280AD12048007840F0D1
:1026100080001E4908704FF6FF701E49088004E0D4
:102620001A480078401C194908700221184800F027
:10263000C3F930B31548007800F0400078B1134872
:10264000007840F0800011490870114800F0AEF9A0
:102650001149088000210E4800F082FA11E00020A4
:102660000A4908700A4800F0A4F90A490880074896
:10267000007840F04000054908700221044800F04D
:102680006FFA0321024800F052F910BD89000020C2
:10269000000C00408A0000208C0000200EB50121B3
:1026A0001020FFF79FFA40F2E730ADF8040041F642
:1026B0001F40ADF800000020ADF80600ADF80200A4
:1026C0006946084800F0E8FA0121064800F036FBA8
:1026D00001221146034800F0E0F90121014800F011
:1026E00029F90EBD0010004010B50548007810B162
:1026F0000120044908700121034800F018F910BDB9
:102700002800002074000020001000400EB50121B8
:102710002020FFF767FA40F2E730ADF804004720C9
:10272000ADF800000020ADF80600ADF802006946E3
:10273000084800F0B1FA0121064800F0FFFA012232
:102740001146044800F0A9F90121024800F0F2F80E
:102750000EBD00000014004070B52948007878B91B
:10276000FEF74AFC274800F0DBFD274800F0D8FDC3
:1027700026A000F0D5FD102001F06AFA2D4908606E
:102780002D4800880A2803D100202B49088000E04A
:1027900000BF00BF284800880A2190FBF1F201FB2E
:1027A000120010BB25480068FDF72EFF064624499D
:1027B000FDF764FD05462349FDF72EFD0446224939
:1027C000FDF72AFD214908602148007801280CD135
:1027D00008460068FEF7F2FD1E49096808441D49D5
:1027E000086008460068FEF7DBFE13480088401CBE
:1027F000114908800121184800F099F870BD0000C7
:10280000280000207C470008384700080D0A2046B1
:1028100072656573616C65206465766963652069BE
:102820006E697469616C697A6174696F6E2E0D0AE4
:1028300000000000300000202A00002038000020A6
:1028400000B0B64500002041000070423C0000206E
:1028500040000020340000200014004000B589B082
:1028600001211020FFF7DEF901210846FFF7DAF910
:1028700001214803FFF7D6F9C020ADF8200003205E
:102880008DF8220018208DF8230008A91E48FEF7B5
:10289000DFFB0020ADF81400ADF8160041F61F4034
:1028A000ADF818000020ADF81A008DF81C0005A93D
:1028B000164800F0F1F97020ADF804000120ADF8E1
:1028C00006000020ADF808000220ADF80C00002042
:1028D000ADF80E0001A90D4800F0F6F801A90B486B
:1028E00000F048F90021094800F0A3F90021074849
:1028F00000F0A1F90121054800F01CF8012103486E
:1029000000F024F809B000BD00100140003401407F
:1029100021B1028842F08002028004E002884FF672
:102920007F731A4002807047CA4302827047CA43CD
:102930000282704721B1028842F00102028004E065
:1029400002884FF6FE731A400280704731B1B0F82A
:10295000442042F40042A0F8442005E0B0F84420AE
:10296000C2F30E02A0F844207047F0B50C4615469D
:102970001E460021002200230189028B038C4FF6A2
:10298000F877394021434FF6FC473A4040F20117AF
:102990003A434FF6DD773B404FF6FF7707EA0617DD
:1029A0002F433B43018102830384F0BD0146888E9F
:1029B00070470146888C704730B5024600200023DE
:1029C0000024158A05EA0103958905EA010413B17B
:1029D0000CB1012000E0002030BD000070B50546BC
:1029E0000C46244885420ED0234885420BD0B5F1D1
:1029F000804F08D02148854205D02148854202D029
:102A00002048854200D100E000BF208850B92389CA
:102A1000A28861882846FFF7BDFBE188284600F0C0
:102A20000EF925E0208804280AD12389A28861882C
:102A30002846FFF7EFFBE188284600F009F917E088
:102A4000208808280AD12389A28861882846FFF7B0
:102A50002DFCE188284600F008F909E02389A288C6
:102A600061882846FFF76AFCE188284600F006F9ED
:102A700070BD0000002C0140003401400004004003
:102A800000080040000C004000210180418001212D
:102A900081800021C180018170471AB183890B4375
:102AA000838102E083898B438381704710B5FFF7F0
:102AB00091FCFFF7D9FCFFF759FDFFF7EFFDFFF79A
:102AC00025FEFFF7CBFE10BD70B5002400220023C9
:102AD000058C4FF6FE7635400584028C8388048B86
:102AE0004FF68F752C40B51E2C400D882C43751E5B
:102AF0002A400D892A434D882A43144DA8420BD001
:102B0000134DA84208D0134DA84205D0124DA8423B
:102B100002D0124DA84213D14FF6F7752A404D89C5
:102B20002A434FF6FB752A408D882A434FF6FF65EE
:102B30002B404FF6FF552B408D892B43CD892B43DE
:102B400083800483CD888586028470BD002C01407B
:102B50000034014000400140004401400048014071
:102B60000A460021018C4FF6FD7319401143018480
:102B70007047000070B5002400220023058C4FF63A
:102B8000EF7635400584028C8388048B48F6FF7508
:102B90002C404FF6FF452C400D884FF6FF7606EA95
:102BA00005252C434FF6DF752A400D8906EA0515E9
:102BB0002A434D8806EA05152A43154DA84202D03E
:102BC000144DA8421DD14FF67F752A404D894FF60E
:102BD000FF7606EA05152A434FF6BF752A408D8811
:102BE00006EA05152A434FF6FF352B404FF2FF75D5
:102BF0002B408D8906EA85052B43CD8906EA85059C
:102C00002B4383800483CD880587028470BD000038
:102C1000002C0140003401400A460021018B4FF294
:102C2000FF7319404FF6FF7303EA02231943018330
:102C30007047818670470187704781847047028B97
:102C40004FF6F3731A400283028B0A4302837047E4
:102C5000028B4FF2FF331A400283028B4FF6FF7351
:102C600003EA01231A4302837047828B4FF6F37302
:102C70001A408283828B0A4382837047828B4FF291
:102C8000FF331A408283828B4FF6FF7303EA0123DE
:102C90001A43828370470000002202881D4B98422D
:102CA0000ED01D4B98420BD0B0F1804F08D01B4B7B
:102CB000984205D01A4B984202D01A4B984204D140
:102CC0004FF68F731A404B881A43174B984207D020
:102CD000164B984204D04FF6FF431A40CB881A4354
:102CE00002808B8883850B8803850A4B98420BD022
:102CF000094B984208D00E4B984205D00D4B984294
:102D000002D00D4B984201D10B7A038601238382B6
:102D100070470000002C01400034014000040040D6
:102D200000080040000C004000100040001400406B
:102D300000400140004401400048014021B10288A8
:102D400042F00402028004E002884FF6FB731A404E
:102D50000280704701200149087070477C00002004
:102D600000200149087070477C00002010B5FFF773
:102D7000ABF9FEF7D7FB00F011FAFEF76FFBFFF798
:102D800095FEFEF72FFD00F08FF8FDF773FF00F0C2
:102D90007DFAFEF7EDFB6420FDF78EFF002004496D
:102DA000086008460068FEF7FBFBFEF7FDFE10BD5D
:102DB0003400002010B51C4800880A2190FBF1F275
:102DC00001FB1204012C04D0022C1BD0032C24D1B3
:102DD00022E0012000F032F814480078012805D1E3
:102DE000FEF7AAFFFDF7D6FFFFF7BAFFFDF77EFF5C
:102DF0000F4910480068FDF7B9FC02D2022000F02C
:102E000019FA0BE0012000F019F8084800780128B1
:102E100001D1FFF7A5FF01E000E000BF00BF0648B9
:102E20000068FEF7BFF810BD2A0000207C000020DB
:102E300000002041640000203000002000B5024660
:102E400007480068401C0649086008460068904230
:102E500004D1FFF77FFF00200149086000BD00009A
:102E6000800000200EB501210420FEF7BBFE4FF6C6
:102E7000FF70ADF804004720ADF800000020ADF869
:102E8000020069460148FFF707FF0EBD0008004039
:102E90000448006820B103480068401E01490860EA
:102EA000704700007800002008B501214020FEF79F
:102EB000B9FE3E20ADF8000003208DF8020004208A
:102EC0008DF8030069460248FEF7C2F808BD00000D
:102ED0000018014010B52021264800F0B7F801285D
:102EE00046D1244800F050F9C4B20A2C40D00D2C31
:102EF0003ED021480068C0432049C1F8B0012048B5
:102F0000047000786A2822D006DC202829D06128A5
:102F100009D064282AD10BE06B281DD0732811D06A
:102F2000772823D109E04C21124800F032F91EE045
:102F30005221104800F02DF919E055210D4800F0FC
:102F400028F914E044210B4800F023F90FE04A214E
:102F5000084800F01EF90AE04821064800F019F977
:102F600005E05421034800F014F900E000BF00BF61
:102F700010BD000000440040B00121420000214289
:102F80002D00002001F40072B2F5007F00D100BFD7
:102F9000CA430280704721B1828942F40052828183
:102FA00004E082894DF6FF731A4082817047000069
:102FB00010B504462048844209D101218803FEF758
:102FC00041FE00214FF48040FEF73CFE32E01B48FA
:102FD000844209D101214804FEF714FE00214FF478
:102FE0000030FEF70FFE25E01548844209D101218B
:102FF0008804FEF707FE00214FF48020FEF702FE52
:1030000018E01048844209D10121C804FEF7FAFDF6
:1030100000214FF40020FEF7F5FD0BE00A48844242
:1030200008D101210805FEF7EDFD00214FF48010C5
:10303000FEF7E8FD10BD00000038014000440040EC
:1030400000480040004C0040005000400246002074
:10305000B1F5007F00D100BF13880B400BB10120F8
:1030600000E000207047F0B503460024002600254C
:10307000002040F66A17B94200D100BF1846C1F3DC
:10308000421401F01F06012707FA06F5012C01D1B1
:103090000C3004E0022C01D1103000E014301AB1E1
:1030A00007682F43076002E00768AF430760F0BD81
:1030B0002DE9F04786B005460E460024A24600BF23
:1030C000A1460027B08900B100BF2F462C8A4CF6DC
:1030D000FF700440F08804432C82AC894EF6F31054
:1030E0000440B08831890843718908430443AC81A6
:1030F000AC8A4FF6FF400440B0890443AC8201A87B
:10310000FEF7B0FD1F48874202D1DDF810A001E0B4
:10311000DDF80CA0A88900F4004040B10AEBCA0019
:1031200000EB0A1031684900B0FBF1F807E00AEB48
:10313000CA0000EB0A1031688900B0FBF1F8642086
:10314000B8FBF0F004012009642101FB1089A88973
:1031500000F4004040B1322000EBC900B0FBF1F0B8
:1031600000F00700044308E0322000EB091064215E
:10317000B0FBF1F000F00F0004432C8106B0BDE875
:10318000F08700000038014001468888C0F308003D
:103190007047C1F3080282807047000000B585B017
:1031A00001210420FEF73EFD01214804FEF71AFD2F
:1031B0001E48FFF7FDFE0420ADF8100018208DF822
:1031C000130003208DF8120004A91948FDF740FFF1
:1031D0000820ADF8100004208DF8130004A914484D
:1031E000FDF736FF4FF4E13000900020ADF8040009
:1031F000ADF80600ADF80800ADF80C000C20ADF8F5
:103200000A0069460948FFF753FF012240F22551A1
:103210000648FFF728FF01210448FFF7BCFE4021C4
:103220000248FFF7AFFE05B000BD000000440040BB
:103230000008014010B504461AE000220F4B104967
:1032400008684968FDF754FA12D20E48FEF7C0FE2E
:103250004FF41670FEF7A4F94FF4FA70FDF72CFD49
:103260000948FEF7B5FE4FF42F70FEF799F910BD2F
:10327000201EA4F10104E0D100BFF8E700004E4099
:10328000A80000200000F0410000A0C01FB50120F0
:10329000ADF80C0048208DF80F0003208DF80E00CB
:1032A00003A91E48FDF7D4FE4FF48060ADF80C0072
:1032B00010208DF80F0003208DF80E0003A9174889
:1032C000FDF7C6FE00210846FDF7A2FE0120019091
:1032D0000C208DF8090000208DF808008DF80A00F8
:1032E00001A8FDF70DFD4FF4E060FEF707FA062098
:1032F0008DF8000000208DF8010003208DF80200F9
:1033000001208DF803006846FEF7C0F9FFF7AAFD1B
:103310004FF480610148FDF731FF1FBD00080140F7
:103320000FB4054B10B503A9044A029800F0DAF86F
:1033300010BC5DF814FB0000153C0008B80000202C
:1033400002E008C8121F08C1002AFAD1704770476E
:10335000002001E001C1121F002AFBD170470000CC
:103360002DE9FF5F82B00021DDE90430020DDDF8B8
:1033700040B0034318D044F61050A2F2FF3242434B
:103380001514119801281FD0A5EB0B00401C5FEA13
:10339000000A4FF000064E4FDFF83891B046504615
:1033A00015D5CAF1000413E0119801244AA301289D
:1033B00001D16FEA0B010298119AC0E90031C0E90E
:1033C000024206B0BDE8F09FCBF10000DFE7044603
:1033D0000021404A491842EB0450CDE9001012E0A8
:1033E000E00707D032463B4640464946FDF72BF8FA
:1033F0008046894632463B4610461946FDF723F87B
:1034000006460F466410002CEAD1DDE90401DDE92F
:103410000023BAF1000F06DAFDF715F842464B46D5
:10342000FDF711F805E0FDF780F842464B46FDF741
:103430007CF804460E460022284BFDF7C5FA03D857
:103440004FF0FF30014607E00022254B2046314671
:10345000FCF752FFFDF7A0FA102409E0002C0ADB6C
:103460000A220023FDF7A2F9039B30321A55641E8D
:1034700050EA0102F2D1641C039AC4F1110314440E
:10348000119A012A03D0012208430DD10AE0084312
:1034900004D000204FF0110B119072E7A3EB0B0545
:1034A0006D1E0DE05B4504DD4FF0000205F10105E6
:1034B00004E003DA4FF00002A5F10105002AECD088
:1034C00002981199C0E90231C0E9004579E700008E
:1034D000000014400000F03F300000000000F04306
:1034E0000000E03F2DE9FF4F95B09B468946064618
:1034F00000250FE2252877D100242746F84A01212C
:10350000059400E0044316F8013F203B01FA03F064
:103510001042F7D130782A2811D06FF02F0330787D
:10352000A0F13002092A16D8059A44F0020402EBF1
:10353000820203EB42021044761C0590EFE759F833
:10354000042B0592002A03DA504244F400540590FB
:1035500044F00204761C30782E2816D116F8010F9C
:1035600044F004042A280DD06FF02F023078A0F127
:103570003003092B09D807EB870302EB4303C71875
:10358000761CF3E759F8047B761C30786C280FD052
:1035900006DC4C2817D068280DD06A2814D104E026
:1035A000742810D07A280FD10DE044F400140AE0FA
:1035B00044F4801401E044F440147278824202D151
:1035C00004F58014761C761C307866280BD013DC4A
:1035D000582877D009DC002875D04528F6D0462831
:1035E000F4D047281AD19DE118E0632835D064282B
:1035F00079D0652812D195E1702873D008DC67284E
:10360000F1D069286FD06E280DD06F2806D1B5E0B3
:1036100073282CD0752875D0782874D05A461799FD
:1036200090476D1C75E1C4F30250022809D00328AD
:103630000DD0D9F8001004280DD00D6009F104094F
:1036400067E1D9F80010EA17C1E90052F6E7D9F8A6
:1036500000100D80F2E70D70F0E719F8041B8DF8EB
:10366000001000208DF80100EA46012003E059F81F
:1036700004AB4FF0FF3061074FF0000102D40DE0C2
:1036800008F101018846B9420FDA8045F8DB1AF8E3
:1036900008100029F4D108E008F1010188468142B0
:1036A000FADB1AF808100029F6D105985B46A0EB62
:1036B000080721463846179A00F094FA284400EB90
:1036C000080507E04DE029E10DE01AF8010B5A4624
:1036D00017999047B8F10108F7D25B462146384662
:1036E000179A13E142E00A220092C4F302524FF00B
:1036F000000A022A08D059F804CB032A4FEAEC71D9
:103700000AD00DE029E02AE009F1070121F00702C3
:10371000F2E802C1914609E00FFA8CFC4FEAEC7125
:10372000042A03D14FFA8CFC4FEAEC71002907DA26
:103730000A460021DCF1000C61EB02012D2202E0BF
:10374000220504D52B228DF80420012203E0E20794
:1037500001D02022F7E7904659E00A2102E010222A
:103760000DE010214FF0000A00910BE010224FF005
:10377000000A44F004040827009203E008224FF0F6
:10378000000A0092C4F30252022A05D059F804CB71
:103790000021032A08D009E009F1070121F00702FE
:1037A000F2E802C1914605E01FFA8CFC042A01D11F
:1037B0000CF0FF0C4FF00008220728D5702806D027
:1037C000009B83F0100353EA0A0305D00EE0402269
:1037D0008DF80420012208E05CEA010206D03022C4
:1037E0008DF804208DF8050002229046009B83F09E
:1037F000080353EA0A030AD15CEA010201D1620715
:1038000005D530228DF804204FF001087F1E58287E
:1038100004D034A003900EA802900DE036A0F9E782
:1038200053466046009AFCF7C1FF84460398825CC9
:103830000298401E029002705CEA0100F0D10298EA
:1038400006A9081A00F1200A600702D524F4803482
:1038500000E00127574502DDA7EB0A0000E0002049
:1038600000EB0A01009005984144401A0590E003DE
:1038700006D45B462146179A059800F0B3F9054433
:10388000002706E001A85A46C05D179990476D1CB5
:103890007F1C4745F6DBE0030CD55B462146179AB3
:1038A000059800F09FF9054404E030205A46179926
:1038B00090476D1C0099481E00900029F5DC08E037
:1038C000029802995A460078491C0291179990472C
:1038D0006D1CBAF10001AAF1010AF1DC65E10000FA
:1038E00009280100303132333435363738396162D6
:1038F000636465660000000030313233343536379A
:1039000038394142434445460000000000F058F970
:103910000544761C307800287FF4ECAD19B02846B9
:10392000BDE8F08F620700D4062709F1070222F0F4
:10393000070CFCE80223E14603F000485FEA080CAC
:1039400002D00FF2702C0DE05FEA045C02D50FF29A
:10395000682C07E05FEAC47C02D00FF2602C01E023
:10396000AFF2700C4FF0FF3823F00043CDF850C099
:1039700065280CD006DC452809D046281DD04728EC
:103980003DD13DE0662818D067287ED138E000217F
:10399000112F01DB112000E0781CCDE9000106A900
:1039A0000EA8FFF7DDFCDDE90F010E9A039100215F
:1039B000009207F1010A04914DE04FF0004000979A
:1039C000CDE9011006A90EA8FFF7CAFCDDE90F0238
:1039D00003920E9B11990022DDF80CA00093049233
:1039E00011B9791C00EB010AB7EB0A0004D4C0F14D
:1039F000FF3007F1010A0490AAEB0700019044E0B0
:103A0000012F00DA01270021112F01DD112000E034
:103A10003846CDE9000106A90EA8FFF7A1FCDDE9B3
:103A20000F010E9A0391002104910092BA462107DA
:103A30000CD40399514500DA8A46BAF1010F05DD2D
:103A4000009AAAF10101515C302908D0B84202DA8B
:103A500010F1040F06DA0121CDE9011015E0AAF1F9
:103A60000101E9E7002805DC049901440491AAEB6F
:103A7000000102E0411C514500DD8A460499401ACC
:103A8000401C01904FF000400290200704D40198A0
:103A9000504501DBCDF8048000208DF84F000298DE
:103AA0000DF14F07B0F1004F25D02B200E9002985A
:103AB0004FF0020800280CDA404202902D200E90B0
:103AC00007E00A210298FCF75BFE3031029007F80C
:103AD000011DB8F10001A8F10108F2DC02980028EC
:103AE000EFD1791E0E980870307800F0200040F079
:103AF000450007F8020D12A8C01B00F10708149832
:103B0000007800B1012000EB0A01019801EBE0719F
:103B100005984144401A401E0590E00306D45B46D8
:103B20002146179A059800F05DF80544149800782E
:103B300018B15A46179990476D1CE00324D55B468F
:103B40002146179A059800F04DF805441CE00498AA
:103B5000002807DBDDE90301884203DD0098405CB3
:103B6000179901E0179930205A469047049805F1BB
:103B70000105401C04900198401E019004D12E20A4
:103B80005A46179990476D1CBAF10001AAF1010A33
:103B9000DDDC05E017F8010B5A46179990476D1CBC
:103BA000B8F10001A8F10108F4DC5B462146179A40
:103BB0000598ABE62D0000002B000000200000005F
:103BC0002DE9F041044600251E461746880404D41A
:103BD00005E039462020B0476D1C641EF9D5284603
:103BE000BDE8F0812DE9F041044600251E469046CF
:103BF000C80301D5302700E02027880404D505E05C
:103C000041463846B0476D1C641EF9D52846BDE8CC
:103C1000F081000070B504460D46E1B20548FFF79B
:103C2000B8FA00BF40210348FFF710FA0028F9D086
:103C3000204670BD00440040FEF77CFAFDF7D8FC3A
:103C4000FFF794F803E0FFF7B5F8FDF745FFFAE753
:103C5000F0B50B30154D20F007010024144A0FE099
:103C600003688B420BD38B4205D95E1A4318476811
:103C7000C3E9006700E04368136002C004E0021D6E
:103C800010680028ECD12046002802D1286808B12D
:103C90000020F0BD064A07481060074A121A22F0B9
:103CA0000702C0E9002401202860D7E7C0000020F7
:103CB000BC000020F4050020F007002010B50246EB
:103CC000012000E050430B1EA1F10104E1B2F9D143
:103CD00010BD000000000000000000000000000017
:103CE00000003F40000000000000000030004000E5
:103CF00030004000000009000BC03D000BC03D003B
:103D0000090018C024407FE02240318000001800E4
:103D100024C01B000D803240018003801C402740DE
:103D20001C80074000401000600000000000000000
:103D300000000000000000001F8020404020000024
:103D4000402020401F8000000000090006001F8066
:103D5000060009000000040004003F800400040085
:103D600000000010006000000000000000000400DF
:103D700004000400040004000000000000400000F3
:103D8000000000000000002001C0060038004000D4
:103D900000001F802040204020401F8000000000C5
:103DA00010403FC000400000000018C021402240E9
:103DB00024401840000010802040244024401B80F4
:103DC000000002000D0011003FC0014000003C80D7
:103DD000244024402440238000001F8024402440AD
:103DE0003440038000003000200027C0380020004D
:103DF00000001B802440244024401B8000001C0045
:103E000022C0224022401F80000000000000084025
:103E1000000000000000000000000460000000003E
:103E20000000000004000A0011002080404009004A
:103E3000090009000900090000000000404020803E
:103E400011000A000400180020002340240018007C
:103E500000001F802040274029401F4000000040F4
:103E600007C039000F0001C0004020403FC024407F
:103E700024401B8000001F802040204020403080D4
:103E8000000020403FC0204020401F800000204014
:103E90003FC024402E4030C0000020403FC024409E
:103EA0002E00300000000F001080204022403380A0
:103EB000020020403FC0040004003FC020402040DA
:103EC00020403FC0204020400000006020202020F3
:103ED0003FC02000200020403FC024400B0030C0E5
:103EE000204020403FC020400040004000C03FC074
:103EF0003C0003C03C003FC0000020403FC00C40DD
:103F000023003FC020001F802040204020401F8011
:103F1000000020403FC024402400180000001F8003
:103F20002140214020E01FA0000020403FC024404D
:103F3000260019C0004018C024402440224031808F
:103F40000000300020403FC0204030000000200032
:103F50003F80004000403F80200020003E0001C024
:103F6000070038002000380007C03C0007C03800B8
:103F70000000204039C0060039C020400000200069
:103F8000384007C0384020000000304021C02640A3
:103F9000384020C00000000000007FE040204020AA
:103FA0000000000070000C000380004000000000D2
:103FB000402040207FE00000000000002000400082
:103FC0002000000000000010001000100010001081
:103FD0000010000000004000000000000000000091
:103FE00002800540054003C0004020003FC004405F
:103FF00004400380000000000380044004400640A9
:10400000000000000380044024403FC00040000046
:1040100003800540054003400000000004401FC02D
:10402000244024402000000002E0055005500650C6
:10403000042020403FC00440040003C000400000B2
:10404000044027C0004000000000001000100410D1
:1040500027E00000000020403FC00140070004C0EE
:104060000440204020403FC000400040000007C006
:10407000040007C0040003C00000044007C004405F
:10408000040003C00040000003800440044003809B
:104090000000041007F004500440038000000000FA
:1040A00003800440045007F00010044007C00240A1
:1040B000040004000000000006400540054004C064
:1040C0000000000004001F800440004000000400C5
:1040D00007800040044007C000400400070004C0FF
:1040E000018006000400060001C0070001C00600B0
:1040F0000000044006C0010006C004400000041097
:10410000071004E00180060004000000044005C020
:104110000640044000000000000004007BE0402056
:104120000000000000000000FFF0000000000000A0
:1041300040207BE0040000000000400080004000C0
:1041400020002000400000000000000000000000EF
:104150000000000000000000000000001FCC000C68
:1041600000000000000000000800300060000800AF
:10417000300060000000022003FC1E20022003FC2F
:104180001E200220000000000E1811043FFF1084C2
:104190000C78000000000F0010840F3800C0077872
:1041A00018840078000000780F8410C411240E9841
:1041B00000E40084000808006800700000000000AF
:1041C00000000000000000000000000007E01818D8
:1041D000200440020000000040022004181807E0FC
:1041E0000000000000000240024001800FF001804A
:1041F0000240024000000080008000800FF8008034
:104200000080008000000001000D000E0000000092
:10421000000000000000000000800080008000809E
:104220000080008000800000000C000C00000000F6
:10423000000000000000000000060018006001807F
:10424000060018002000000007F008081004100401
:10425000080807F000000000080408041FFC000420
:1042600000040000000000000E0C10141024104484
:1042700011840E0C000000000C181004110411042D
:1042800012880C700000000000E0032004240824C1
:104290001FFC0024000000001F981084110411046A
:1042A000108810700000000007F008881104110445
:1042B00018880070000000001C00100010FC1300A3
:1042C0001C001000000000000E38114410841084FF
:1042D00011440E38000000000700088C1044104400
:1042E000088807F00000000000000000030C030C29
:1042F00000000000000000000000000101060000B6
:1043000000000000000000000080014002200410B6
:1043100008081004000002200220022002200220CF
:1043200002200220000000001004080804100220EF
:1043300001400080000000000E001200100C106C04
:1043400010800F00000003E00C1813E4142417C4BD
:10435000082807D000000004003C03C41C400740AC
:1043600000E4001C000410041FFC110411041104DB
:104370000E880070000003E00C18100410041004F4
:1043800010081C10000010041FFC1004100410047E
:10439000080807F0000010041FFC1104110417C4E2
:1043A00010040818000010041FFC1104110017C0AD
:1043B00010000800000003E00C1810041004104462
:1043C0001C780040000010041FFC10840080008056
:1043D00010841FFC10040000100410041FFC1004C3
:1043E00010040000000000030001100110011FFE76
:1043F00010001000000010041FFC1104038014645E
:10440000181C1004000010041FFC10040004000419
:104410000004000C000010041FFC1F0000FC1F0023
:104420001FFC1004000010041FFC0C04030000E03B
:1044300010181FFC100007F00808100410041004E6
:10444000080807F0000010041FFC10841080108082
:1044500010800F00000007F0081810241024101C12
:10446000080A07F2000010041FFC1104110011C01B
:1044700011300E0C000400000E1C11041084108476
:1044800010441C3800001800100010041FFC100419
:1044900010001800000010001FF8100400040004B1
:1044A00010041FF8100010001E0011E0001C007026
:1044B00013801C0010001FC0103C00E01F0000E033
:1044C000103C1FC000001004180C163401C001C0BD
:1044D0001634180C100410001C00130400FC130404
:1044E0001C00100000000804101C10641084130449
:1044F0001C04101800000000000000007FFE4002B5
:10450000400240020000000030000C000380006008
:10451000001C0003000000004002400240027FFE39
:1045200000000000000000000000200040004000EB
:104530004000200000000001000100010001000116
:1045400000010001000100004000400020000000C8
:104550000000000000000000009801240144014414
:10456000014400FC000410001FFC00880104010449
:104570000088007000000000007000880104010441
:10458000010400880000000000700088010401049C
:1045900011081FFC0004000000F80144014401441C
:1045A000014400C800000000010401040FFC1104D4
:1045B000110411001800000000D601290129012969
:1045C00001C90106000010041FFC00840100010065
:1045D000010400FC000400000104190419FC00049B
:1045E00000040000000000000003000101011901A7
:1045F00019FE0000000010041FFC0024004001B45C
:10460000010C010400000000100410041FFC000451
:10461000000400000000010401FC0104010001FC91
:104620000104010000FC010401FC00840100010000
:10463000010400FC0004000000F80104010401046E
:10464000010400F80000010101FF008501040104DC
:104650000088007000000000007000880104010460
:10466000010501FF00010104010401FC00840104B3
:10467000010001800000000000CC0124012401247D
:1046800001240198000000000100010007F8010466
:10469000010400000000010001F80004000400040F
:1046A000010801FC0004010001800170000C0010F1
:1046B00001600180010001F0010C003001C00030F8
:1046C000010C01F0010000000104018C0074017074
:1046D000018C01040000010101810171000E00182C
:1046E00001600180010000000184010C01340144DB
:1046F0000184010C00000000000000000000010027
:104700003EFC400240020000000000000000FFFFED
:104710000000000000000000400240023EFC0100DA
:1047200000000000000000006000800080004000E9
:1047300040002000200000002B3E2D2D2D2D2D2D82
:104740002D2D2D2D2D2D2D2D2D2D2D2D2D2D2D2D99
:104750002D205343492D2076312E305F5243202D9A
:104760002D2D2D2D2D2D2D2D2D2D2D2D2D2D2D2D79
:104770002D2D2D2D2D3C2B200D0A00000D48617292
:10478000647761726520706C6174666F726D20561B
:10479000312E30206F66204D656368616E696361FC
:1047A0006C20456E67696E656572696E6720457835
:1047B000706572696D656E742043656E74657220F4
:1047C000666F7220467265657363616C6520496E21
:1047D00074656C6C6967656E742043617220284D46
:1047E00061646520627920536369656E6365290D94
:1047F0000A0000001448000800000020C400000067
:1048000040330008D8480008C40000202C0B0000EA
:104810005033000800A24A0400000000000000001D
:104820000102030406070809000000000102030456
:10483000010203040607080902040608000001003B
:104840000000000000000000000000000000000068
:104850000000000000000000000000000000000058
:104860000000000000000000000000000000000048
:104870000000000000000000000000000000000038
:1048800000000000300000000000000000000000F8
:104890000000000000000000000000000000000018
:1048A0000000000000000000000000000000000008
:1048B00000000000000000000000000000000000F8
:1048C00000000000000000000000000000000000E8
:0848D0000000000000000000E0
:0400000508000131BD
:00000001FF
